:100000000C94F9020C9431030C9431030C94B13329
:100010000C9431030C9431030C9431030C94310390
:100020000C9431030C9431030C94C02A0C947C2A58
:100030000C94BD2B0C9431030C9431030C943103BC
:100040000C9431030C9431030C9431030C94310360
:100050000C9431030C94992B0C9431030C943103C0
:100060000C9431030C9431030C9431030C94310340
:100070000C9431030C9431030C9431030C94310330
:100080000C9431030C9431030C9431030C94310320
:100090000C9431030C9431030C9431030C94310310
:1000A0000C9431030C9431030C9431030501098045
:1000B000A101850319012AB700150126B700950192
:1000C00075108100C0050C0901A101850419012AE0
:1000D000A002150126A002950175108100C00660DE
:1000E000FF0961A1010962150026FF00952075082E
:1000F00081020963150026FF00952075089102C052
:1001000005010906A101050719E029E715002501E8
:10011000950875018102950175088101050719008F
:1001200029FF150026FF00950675088100050819AE
:10013000012905950575019102950175039101C08D
:10014000FD377A585A000004E6D6B4460200210171
:1001500016000000742FE5A3E0021D00EA5D003DDB
:10016000888966949074A77689C2124D411B5F11ED
:10017000D8821E5EC1183202D1652E8C048F388B56
:100180002AFD39F7589536E33C9359E2BDF0439781
:10019000A7F8D1CC84436D8256B59D2B7B0BC9F952
:1001A000047C52F13B308C0DD74F647445C2A74597
:1001B000DFA4B47B71839B5B4C806B96EB8222DB6C
:1001C0002F4D74B6E50AA60152AB7709B493B28BF2
:1001D000CAE7F18DA0CA4CE4A87038E04E57283722
:1001E000DE25E1FB7DE4516F4D0DD44E44061C9499
:1001F000E19C5C41C3870523337F23B86B4503AB88
:1002000023BE04242F0A3625307E1D4F551FF9A327
:10021000F46BD4F7C23621E0BDD32514FE24EC6E76
:100220007F88C41D966A6A6F01A0EFADA6F2F66AD8
:100230000726FFEB79C739395168F5D572BB18C865
:10024000640D3E113A70262B45000000FEF00C961E
:1002500011F14104000186029E040000334EEA2B96
:10026000B1C467FB020000000004595A14001A00D0
:1002700008001500170004001600070009000A0016
:100280001D621B000600190005000000A800E00028
:1002900001512C00130012000C0018001C00340047
:1002A0000F000E000D000B003872370036001000F2
:1002B000110000001100E60002512A001E001F007C
:1002C0002000210022002B005000510052004F005E
:1002D000E0003500E300E200010000000000010042
:1002E0000100010027002600250024002300300023
:1002F0002F002E002D00010033003100010001000D
:100300000100000000000100045128001E021F022D
:100310002002210222022900010001000100010047
:100320003900350201000100010000000000010059
:100330000451010027022602250224022302300272
:100340002F022E022D0201003302310201000100B2
:100350000100000000004C00010028001E021F02E6
:1003600020022102220229000100010001000100F7
:100370003900350201000100010000000000010009
:100380000100010027022602250224022302300276
:100390002F022E022D020100330231020100010062
:1003A0000100000000004C00010028003A003B0062
:1003B0003C003D003E0044004500010001000100FA
:1003C000005C0100010001000100000000000000CD
:1003D0000000000043004200410040003F004C0587
:1003E0004C054D0501000100010001000100010064
:1003F00001000000010000000000000001000100F9
:100400002004DD0B100C0000020002001C04DD0BB8
:10041000100C0000030001002104DD0B100C000093
:10042000040002000604DD0B100C74060500010038
:100430002204DD0B100C0000060002000804DD0B96
:10044000100C0000070002001E04DD0B100C000061
:10045000080001002304DD0B100C00001200020054
:100460002404DD0B100C0000130002002604DD0B39
:10047000100C0000140001002804DD0B100C00001B
:10048000150000000000FA058B15000009025B0052
:10049000030100A0FA090400000103010100092181
:1004A0001101000122400007058103080001090431
:1004B00001000203000000092111010001222200B5
:1004C000070582032000010705030320000109043A
:1004D0000200010300000009211101000122320085
:1004E000070584032000011201000200000008ED4E
:1004F000FE1E1B0100010203011C0376006900615E
:10050000006C003A0066003600340063003200627E
:100510000033006300000012036400720061006396
:100520000075006C0061006400000010036D006144
:10053000006E0067006F0069007600000004030988
:1005400004000000000000000000000000000000A7
:10055000000000000000000000000000000000009B
:1005600000000000007E0F00D4FFFFFFC700000066
:100570007800000000000000002A2B280000000086
:100580000000000000000000000000002900000042
:10059000002C1E3420212224342627252E362D37E8
:1005A00038271E1F202122232425263333362E37B9
:1005B000381F0405060708090A0B0C0D0E0F101151
:1005C00012131415161718191A1B1C1D2F3130235E
:1005D0002D350405060708090A0B0C0D0E0F101126
:1005E00012131415161718191A1B1C1D2F3130352C
:1005F0004C0011241FBECFEFDAE0DEBFCDBF04B642
:1006000003FE18C08091150590911605A09117055D
:10061000B09118058730904BA740B04B59F4109219
:100620001505109216051092170510921805E0E0B6
:10063000F8E3099511E0A0E0B1E0ECECFBE602C0C4
:1006400005900D92A43AB107D9F725E0A4EAB1E0EC
:1006500001C01D92A531B207E1F70E94E42B0C9472
:10066000B9350C940000E8EDF0E080818E7F808346
:100670001092E2001092DA001092E100A0EEB0E0D9
:100680008C9181608C9380818F77808319BCA7EDDA
:10069000B0E08C918E7F8C9380818F7E80831092CE
:1006A000FC0408952091E4003091E50095E6A9014D
:1006B0002091EC00822F817020FF06C08091E8001D
:1006C00080FF06C080E008952091E80022FD1AC056
:1006D00080910905882389F0853089F08091EB00AD
:1006E00085FD0FC02091E4003091E50042175307CB
:1006F000F9F29150E1F684E0089582E0089583E0F4
:10070000089581E00895EF92FF920F931F93CF9386
:100710007C018B010E945203C82F811117C0809168
:10072000E80085FD0BC08091E8008E778093E8009B
:100730000E945203882399F3C82F08C0F7018191C2
:100740007F018093F1000150110949F78C2FCF915F
:100750001F910F91FF90EF90089580910B0587FFF7
:1007600013C08091E80082FF06C08091E8008B777B
:100770008093E80004C0809109058111F2CF0895AB
:10078000809109058823D9F38091E80080FFF8CF94
:100790008091E8008E77ECCF982F9093E900242F7A
:1007A000762F50E0891731F07091EC002091ED0028
:1007B0005091F00021FD07C09F5F973071F7809343
:1007C000E90081E008953091EB003E7F3093EB002B
:1007D0003091ED003D7F3093ED003091EB003160C2
:1007E0003093EB007093EC002093ED005093F000F9
:1007F0002091EE0027FDE0CF80E00895B0E0A0E07A
:10080000E4E0F4E00C94D734C8EDD0E088818F7E2A
:100810008883E7EDF0E080818160808384E082BF9F
:1008200081E08093FC0488818E7F888302EE10E053
:10083000F80110821092DA0081EEC82ED12CF60158
:10084000108288818F7788838881806888838881F7
:100850008F7D888319BC1092090510920A051092A9
:1008600008051092070590EEE92EF12CF701808122
:100870008B7F808388818160888342E060E080E0B4
:100880000E94CC03F60180818E7F8083F8018081F5
:1008900081608083808188608083F70180818E7F82
:1008A0008083888180618883CDB7DEB7E8E00C94CF
:1008B000F334FC018091110590911205861797077A
:1008C000A0F06115710529F49091E8009E7790934E
:1008D000E80090E06115710551F4911108C0809114
:1008E000E80082FF34C080E00895BC01F2CF80911F
:1008F00009058823C1F18530C1F18091E80083FDAD
:1009000030C08091E80082FDEACF8091E80080FF4E
:10091000E1CF8091F3002091F200382F611571052D
:1009200019F02830310558F091E02830310509F0F0
:1009300090E02091E8002E772093E800CBCF8191C2
:100940008093F100615071092F5F3F4FE7CF809195
:100950000905882341F0853041F08091E80083FF4C
:10096000BECF81E0089582E0089583E00895089560
:1009700008958091FE0408959C014FB7F8948091EA
:10098000F5049091F604A091F704B091F8044FBFDC
:10099000821B930B08952FB7F8946091F504709122
:1009A000F6048091F7049091F8042FBF08952FB7B3
:1009B000F8948091F5049091F604A091F704B09119
:1009C000F8042FBF08959C01FC0132969FEF80E050
:1009D0004191461751F09F3F19F4411101C0982FE2
:1009E0008F5F8630A9F79F3F09F40895290F311DC5
:1009F00097FD3A95F901628308952091F2043091B0
:100A0000F3042817390771F09093F3048093F204EC
:100A1000E091F004F091F104309721F00084F18529
:100A2000E02D099508952091EE043091EF042817E8
:100A3000390771F09093EF048093EE04E091F00495
:100A4000F091F104309721F00680F781E02D0995AF
:100A50000895CF93DF93EC014091DE045091DF04C1
:100A60006091E0047091E1042FB7F8948091F5044F
:100A70009091F604A091F704B091F8042FBF841B65
:100A8000950BA60BB70B843F9140A105B10518F556
:100A90008091DE049091DF04A091E004B091E10424
:100AA0008093DA049093DB04A093DC04B093DD041C
:100AB00084EF91E0A0E0B0E08093D6049093D70457
:100AC000A093D804B093D904D093E604C093E5046E
:100AD000DF91CF9108950E94CB046093DA04709364
:100AE000DB048093DC049093DD0482E390E0A0E0DB
:100AF000B0E0E2CFFC018481862351F492819923F6
:100B0000B9F06923808583FF05C081E061110FC0C2
:100B100080E00895892F8F7092959F70982B862F73
:100B20008F7062956F70682B81E09613F1CF0895F6
:100B300081E0FDCF452B39F0682381E06F3F09F05C
:100B400080E08170089581E0FCCFDC016091D204E7
:100B50008091D304962F891301C00895292F30E086
:100B6000F901EE0FFF1FE653FB4F408151814A17F9
:100B70005B07A1F487E08A9FA0018B9F500D112491
:100B80004E565B4F81E0FA0184839613E6CF2F5FC8
:100B90003F4F237033272093D20408952F5F3F4F98
:100BA000922F9370D8CF10922F0410922E04E2E966
:100BB000F4E08581811102C014821682379684E0A8
:100BC000EA3CF807B1F70895FC01680F791F8FEF31
:100BD00091E32191822728E030E087FF09C0880F48
:100BE000892721503109C9F7E617F70791F70895CA
:100BF000880FF7CFB0E0A0E0E0E0F6E00C94D53449
:100C00008FEF9FEF4430510508F469C04091E30332
:100C100041FB882780F990E0880F991F42FB00274D
:100C200000F910E0000F111F000F111F802B912BF6
:100C300040FBCC24C0F8D12C8C299D2943FB2227D2
:100C400020F9C22FE0E0DE2F53E0CC0FDD1F5A95D4
:100C5000E1F78C2B9D2B44FBAA27A0F9B0E0E4E040
:100C6000AA0FBB1FEA95E1F78A2B9B2B45FBEE27CA
:100C7000E0F9F0E0A5E0EE0FFF1FAA95E1F78E2B5B
:100C80009F2B46FB222720F930E0B6E0220F331FCE
:100C9000BA95E1F7822B932B47FB222720F930E00E
:100CA0003695322F222737952795822B932B20912B
:100CB000E403322F3170F32EE82EF92A26952170A5
:100CC000B22EBB0CA82EBF28C501BB0CAA0BBB0BB8
:100CD000FB0180839183A283B38390E080E0CDB752
:100CE000DEB7EAE00C94F134809106049091070499
:100CF00090933901809338010895E4E9F2E090E09F
:100D000080E061EE79E248E05AE226E539E2778355
:100D1000668351874087338722879587848701962A
:100D20003E968830910599F7089581152CE5920734
:100D300041F42091360130913701232B11F490E0DA
:100D400080E0089580E00895F894E82FE295EF7030
:100D5000F0E031A1282F2F7081E090E001C0880FD2
:100D60002A95EAF7982F9095932391A392A1892B26
:100D700082A3789408959091E30392FF06C0282FF0
:100D800028712830F9F4877F846093FF06C0282FEC
:100D900028712831F1F4877E84612091E40320FFDB
:100DA00006C0382F38713830D9F4877F816021FF31
:100DB00006C0282F28712831D1F4877E816194FDE7
:100DC000877E0895282F24712430F9F68B7F886060
:100DD000DCCF282F2471243101F78B7E8861DDCF91
:100DE000382F3171313019F78E7F8860E0CF282F8E
:100DF0002171213121F78E7E8861E1CFCF93DF937E
:100E0000EC0182389105B1F108F040C081339105C1
:100E100009F49DC048F58932910509F48DC08A977F
:100E200009F49CC0C11522E5D20708F0BDC0C11568
:100E300031E5D30708F025C1C83ED10508F0A3C0AD
:100E4000C13ED10588F5C83AD10508F08EC0C53A33
:100E5000D10508F0F6C0C130D10531F1209721F15C
:100E6000C430D10508F545C08533910509F45FC04C
:100E7000C997C1F68091E303837009F037C180916F
:100E8000E40383FF11C0C9E2D0E00EC0833E9105A8
:100E900099F170F4803E910501F1823E910511F6C1
:100EA0008091E30382FD21C0CE01DF91CF910895AF
:100EB000863E910561F1873E910571F1843E910571
:100EC00009F0B0CF8091E40381FFEECF8091E3037E
:100ED000C7EED0E084FD0DC0E7CF8091E30380FD35
:100EE00033C09091E40390FFDFCFC3EED0E084FFE6
:100EF000DBCFD0E0C0E0D8CF8091E30382FDF3C028
:100F00009091E40390FDF2C084FFCECFF2CF8091A8
:100F1000E30383FDDDCFC8CF8091E30383FDE9C008
:100F20009091E40391FFF0CFC4EED0E0BDCF80916B
:100F3000E30385FFB9CFA7CF8091E30385FDDCC034
:100F40008091E40383FFB0CFC9E3D0E0ADCF8091BF
:100F5000E30386FFA9CFCAE2D0E0A6CF8091E303E6
:100F600086FFA2CFC1E3D0E09FCFCF3BD10508F6EB
:100F7000C85AD0E0CC0FDD1FC85BDE4F0990D88186
:100F8000C02DD46491CFC11540E5D40708F064C0EA
:100F9000C11580E4D80708F05CC0CE019A95811590
:100FA0009F4108F481CFA5CFC11536E5D30718F5C9
:100FB000C11545E5D40708F07DC0C11584E5D80703
:100FC00008F073C09C2F969596959E012370332749
:100FD000C115D34508F45AC0C1E0D0E002C0CC0F1F
:100FE000DD1F2A95E2F730E2939FC0011124C82B40
:100FF000D92BDA6859CFC1158AE5D80778F4C1151D
:1010000029E5D20708F061C0C11538E5D30708F417
:1010100070CFDC2FCC27C06FD06A46CFCE01905660
:101020008115904208F065CF8D2F8F710E94BB060D
:1010300090E0982F882788279F719C012C2BE9012D
:1010400042C0C55AD0E0CB5BDE4FC881D0E0D0644F
:101050002BCFDF70D06A28CF2C2F269526952370B2
:1010600080E2289F900111248C2F8370C1E0D0E092
:1010700002C0CC0FDD1F8A95E2F7C22BD32BDD68AF
:1010800013CFDC2FCC27C16FD06A0ECFC1E0D0E0E8
:1010900002C0CC0FDD1F2A95E2F720E2929FC0012B
:1010A0001124C82BD92BDC68FFCEDC2FCC27C46FD2
:1010B000D06AFACE8C2F0E94BB06C82FD0E0DC2F5E
:1010C000CC27CC27DF71D062EFCE8C2F8F700E949F
:1010D000BB0634E0D695C7953A95E1F7CF709C2FC3
:1010E000EC01D069E1CEC2EED0E0DECEC0EED0E0C1
:1010F000DBCEC6EED0E0D8CEC5E3D0E0D5CE0E94A0
:10110000CB04089580911A02882331F010921A02BC
:1011100010921902109218020895CF93C82F80914F
:10112000E40382FF0CC080911A028C1741F00E94E8
:10113000D7049093190280931802C0931A02CF919A
:10114000089580959091140598239093140508951F
:1011500080959091E50398239093E50308959091ED
:10116000E503892B8093E503089510920F021092F6
:101170000E0210920D0208958091080490910904C6
:10118000892B89F00E94D70420911802309119020E
:10119000AC01421B530B81E02091080430910904FB
:1011A0004217530708F480E081700895E8EAF1E0FF
:1011B0009191891303C0DF0111971C9291E0EE3ADF
:1011C000F907B1F7089520910C029091CB012913F2
:1011D00002C080E0089530E0F90153E0EE0FFF1FF8
:1011E0005A95E1F7E453FE4F5181561306C05081E2
:1011F000581303C05281541304C02F5F3F4F277010
:10120000E6CF81E0089580910C029091CB01981374
:1012100001C008958F5F8770FACF292F983078F535
:10122000853068F590E035E0239F800D911D1124F5
:10123000682F677023E0969587952A95E1F7FC0162
:10124000EE0FFF1FE80FF91FEC54FE4F50E040E097
:1012500080E0219130E0062E02C0369527950A9451
:10126000E2F721703327042E01C0220F0A94EAF717
:10127000822B4F5F5F4F4330510559F7089580E04F
:101280000895292F983098F5853088F590E035E05D
:10129000239F800D911D1124282F277041E001C04C
:1012A000440F2A95EAF723E0969587952A95E1F76A
:1012B000FC01EE0FFF1FE80FF91FEC54FE4F30E06A
:1012C00020E070E05191DF011197CB01022E02C0A6
:1012D000969587950A94E2F78170819585278423F6
:1012E00085278C932F5F3F4F2330310559F70895A1
:1012F00092959F70963091F058F4925F9F70923063
:1013000058F4803F19F030F4883E30F481E00895BD
:101310009A5FF4CF843FD1F380E00895883EB0F324
:10132000813FD1F7F3CF9C013A9521153F4150F50C
:10133000FC01EE27F170BC0166277270AC014427F6
:1013400054709C012227387094FF0EC080E1EF2B6F
:1013500009F480E0672B09F08062452B09F0806476
:10136000232B89F08068089581E0EF2B09F480E059
:10137000672B09F08260452B09F08460232B19F05C
:101380008860089580E008958093F9047093FB04C9
:101390006093FA04809109058430F9F48093E900A0
:1013A0008FEF9091E800815095FD06C095ED9A95DC
:1013B000F1F700008111F5CF8091E80085FF0DC0A5
:1013C00050E040E063E070E089EF94E00E94830326
:1013D0008091E8008E778093E8000895BC0184E056
:1013E0000E94C4090895BC0183E00E94C4090895C5
:1013F000CF93DF93EC0181E08093E9008FEF909130
:10140000E800815095FD06C095ED9A95F1F7000032
:101410008111F5CF8091E80085FF14C050E040E0D5
:1014200068E070E0CE010E9483038091E8008E772F
:101430008093E80088E0FE01AFEFB4E001900D92E8
:101440008A95E1F7DF91CF91089581E08093E000E4
:1014500080E28093D8001092C9008FE19EE401974A
:10146000F1F700C0000087E090EBDC0180931505E8
:1014700090931605A0931705B093180588E19CE09A
:101480000FB6F894A895809360000FBE909360000B
:10149000FFCF019708F40895EFE9FFE03197F1F7E6
:1014A00000C00000F6CFB0E0A0E0E9E5FAE00C945F
:1014B000D5347C015B016A018091430201E010E0B8
:1014C0008A3010F40AE010E0C1E0D0E0B501C701B5
:1014D000F6010995811104C021960C171D072CF403
:1014E000CDB7DEB7EAE00C94F134CC9F9001CD9FEC
:1014F000300D300D112490E080E045E34A95F1F77E
:101500000000019682179307C1F7E0CF8091260271
:10151000811110C08091D80080618093D8008AE149
:101520008A95F1F700C08091D90080FF0AC081E060
:101530008093260281E090912602913009F080E0AC
:10154000089582E0809326020E94330310920905D9
:10155000F1CF0E94860A882359F0E091F004F091BF
:10156000F104309729F00190F081E02D099508955C
:1015700080E008950F931F93CF93DF9306E014E06C
:10158000C7E0D2E0CE010E946F35F80181938F0150
:101590002196CB32F2E0DF07A9F7C6E0D4E0FE01E6
:1015A00085919491009711F0FC0109952C96F4E037
:1015B000C639DF07A1F7DF91CF911F910F910895F1
:1015C0000F931F93CF93DF93853030F5683020F56C
:1015D000453010F5C42FD0E0CC0FDD1F2AE0629F0C
:1015E000C00DD11D112430E5839FC00DD11D1124E4
:1015F000CE0187960E946F35082F10E0102F00272C
:10160000CE0188960E946F359801282BC901DF9181
:10161000CF911F910F91089590E080E0F8CF462F71
:101620002091E1033091E203232B99F4703F39F4C8
:10163000603F79F48091DF039091E0030895853055
:1016400040F4783030F4653020F4672F0E94E00ACF
:10165000089590E080E00895CF92DF92FF920F937B
:101660001F93CF93DF936C010091130580911B02B0
:10167000082BC7E0D0E010E0FC2EC8010C2E02C001
:10168000959587950A94E2F780FD0CC02197A0F705
:10169000F12C8F2DDF91CF911F910F91FF90DF9053
:1016A000CF900895B6018C2F0E940F0B0E94FE066A
:1016B000019761F3EECFCF93DF93EC010E942C0BE7
:1016C000BE010E940F0B0E94FE06DF91CF9108958C
:1016D000CF93DF93EC014B815C81698188810E940B
:1016E0009A05811110C08E819F81009739F00E9468
:1016F000FE060E947809DF91CF9108958881998133
:101700000E945B0BF6CF80E0F6CFA5E0B0E0EBE8FF
:10171000FBE00C94DC3449835A8389819A816623E7
:1017200099F0222389F00E942C0B182F682F8981B1
:101730009A810E94410969817A81812F0E940F0B51
:101740002596E3E00C94F8340E940D09182FF3CF8E
:10175000FC01262F86819781009739F440815181C1
:101760006281738184810E94850B089583E290E0F9
:101770000E946F358D3189F484E290E00E946F35CC
:101780008E3E59F485E290E00E946F3591E0893DEC
:1017900009F090E0892F8170089580E0FCCFCF930D
:1017A00084E090E00E946F35C82F82E290E00E94B2
:1017B0006F35982F8C2FCF910895DB01FC01329665
:1017C000259134914217530758F0FC0134966591E6
:1017D0007491A901CD010E944F3590E080E00895F9
:1017E0008FEF9FEF08950F931F93CF93DF9306E042
:1017F00014E0C7E0D2E0CE010E946F35F80161919C
:101800008F01681719F0CE010E947D352196CB32E9
:10181000F2E0DF0781F7DF91CF911F910F910895DB
:10182000DA019C012E5F3F4FF90145915491F90176
:1018300025913491A217B30758F0FC013496859195
:1018400094910E944F350E94F30B90E080E0089540
:101850008FEF9FEF0895CF93DF93CBE1D3E060E06C
:10186000CE010E947D352196C11584E0D807B9F7D5
:10187000DF91CF9108951F93CF93DF93122F85307F
:10188000E0F46830D0F44530C0F4C42FD0E0CC0F81
:10189000DD1F9AE0699FC00DD11D112490E5899F3D
:1018A000C00DD11D1124632FCE0187960E947D3576
:1018B000612FCE0188960E947D35DF91CF911F91D7
:1018C0000895CF93C82F6FEF81116DE183E290E00F
:1018D0000E947D356FEFC1116EEE84E290E00E94B0
:1018E0007D356FEFC11169ED85E290E00E947D3595
:1018F000CF910895CF93C92F682F84E090E00E9484
:101900007D356C2F82E290E00E947D35CF91089565
:101910009B01883070F49AE0899FB0011124655DC5
:101920007D4F4AE050E0C9010E945F3590E080E0C1
:1019300008958FEF9FEF0895AAE0B0E0E2EAFCE09F
:101940000C94DD349C0137552F3F310509F068F4C4
:10195000BE016F5F7F4F0E94880C892B31F489850F
:101960009A852A96E2E00C94F93480911E049091B5
:101970001F04F7CFAAE0B0E0E0ECFCE00C94D33415
:1019800007E613E085E5C82E83E0D82E9BECE92E10
:1019900092E0F92E27E0922E34E5A32E33E0B32E09
:1019A00088248394D6010D931D936D014AE050E085
:1019B000B701CE0101960E945F35F8013896DF012C
:1019C000892D1D928A95E9F789819A81D80111960E
:1019D0009C938E938F8112968C9312978D81139680
:1019E0008C931397888514968C93149789851596F4
:1019F0008C9315978B819C8117969C938E93169749
:101A000018961C9218978A8587FF3CC01E961C92D8
:101A10001E921D9780FF03C0D80118968C9281FFFB
:101A200004C0F80190859260908782FF07C0D801BA
:101A300018969C911897946018969C9383FF04C005
:101A4000F80190859860908784FF07C0D8011896A8
:101A50009C911897906118969C9385FF04C0F8019B
:101A6000808580628087015F1F4FFAE0EF0EF11CD6
:101A70008BE1E81683E0F80609F094CF2A96ECE0B3
:101A80000C94EF34F801B686A586C4CFAAE0B0E086
:101A9000ECE4FDE00C94D734E4E0F3E080E5DF0112
:101AA0001D928A95E9F7E2E9F4E088E3DF011D92EF
:101AB0008A95E9F784E0C82E83E0D82E7F010BE7F2
:101AC00012E0F701D182C0824AE050E0B801CE01B5
:101AD00001960E945F3588E0FE013196D6010190A3
:101AE0000D928A95E1F789859A85D70113969C9383
:101AF0008E931297BAE0CB0ED11CE7E0EE0EF11CEC
:101B0000065F1F4F0B3CF2E01F07D9F62A96E8E06C
:101B10000C94F334A4E0B0E0E0E9FDE00C94DB3495
:101B200040913F0250914002609141027091420207
:101B30002FB7F8948091F5049091F604A091F704E2
:101B4000B091F8042FBF841B950BA60BB70B11E0C7
:101B500084369105A105B10590F10E94860A88237B
:101B600099F10E94CB046E5F7F4F8F4F9F4F698327
:101B70007A838B839C8380912201909123018D5CD9
:101B80009D4F4091210150E04530510510F044E057
:101B900050E0BE016F5F7F4F0E944F3584E090E0C0
:101BA0000E945734182F882351F00E94CB04609371
:101BB0003F02709340028093410290934202812F32
:101BC0002496E4E00C94F7340E94CB040091440284
:101BD000109145022091460230914702600F711F1B
:101BE000821F931FC0CF4F925F927F928F929F92DE
:101BF000AF92BF92CF92DF92EF92FF920F931F931B
:101C0000CF93DF930F92CDB7DEB7C62E4A015901AD
:101C1000482E880F5508C2010E945734782E882319
:101C200009F480C0C20133E0880F991F3A95E1F7AB
:101C3000FC01EF5FFE4F438150E04115510511F06B
:101C400041E050E08F5F9E4FFC01648175816D5CC7
:101C50007D4FCE0101960E944F35F40140815181A4
:101C6000628173812FB7F8948091F5049091F60406
:101C7000A091F704B091F8042FBF841B950BA60B1D
:101C8000B70B84369105A105B10540F4B701C80131
:101C90000E94E4059981891709F444C00C2C000CBA
:101CA000DD08C6010E945734782E811113C0712CB3
:101CB000872D0F90DF91CF911F910F91FF90EF90A3
:101CC000DF90CF90BF90AF909F908F907F905F906C
:101CD0004F900895C60123E0880F991F2A95E1F7D8
:101CE000FC01EF5FFE4F438150E0E416F50608F477
:101CF000A7018F5F9E4FFC01648175816D5C7D4FF4
:101D0000C5010E944F35B701C8010E94E4059981C1
:101D10008913CDCF0E94CB04F40160837183828349
:101D20009383C6CFA701B801C5010E944F35C0CF2C
:101D3000A2E0B0E0EEE9FEE00C94D93482E0E82EB7
:101D4000F12C09E312E09E012F5F3F4F4FE252E07A
:101D500063E082E00E94F30D182F882369F0409120
:101D6000520250915302DE01119690E020E094134C
:101D700008C021110E947F08812F2296E6E00C9472
:101D8000F5348D91E52FE90FF0E0E759FD4F3081F3
:101D9000831B382F131644F0382F87FD30E0831B48
:101DA000811108C09F5FE3CF315020812F5F2083D6
:101DB000212FF0CF8F5F208121502083212FF0CF62
:101DC000A4E0B0E0E6EEFEE00C94D7346B0184E0D2
:101DD000E82EF12C04E312E09E012F5F3F4F4BE20F
:101DE00052E061E080E00E94F30D882361F04981B8
:101DF0005A816B817C814093270250932802609323
:101E0000290270932A024091270250912802609182
:101E1000290270912A02F601408351836283738301
:101E20002496E8E00C94F334ACE0B0E0EAE1FFE0A3
:101E30000C94D2348E010F5F1F4F88E0D8011D92A1
:101E40008A95E9F788E7C82E81E0D82EF12CE12C9D
:101E5000AA24A394B12C21E8822E21E0922EF6012F
:101E600081916F018F3F09F442C0F894E82FE29509
:101E7000EF70F0E021A18F70A50102C0440F551F43
:101E80008A95E2F7CA01922F982B91A392A180958F
:101E9000892382A3789400C0ECE7F1E0712C31E053
:101EA00021912F3F09F46BC0A22FA295AF70B0E033
:101EB00090968C9190E02F7002C0959587952A9509
:101EC000E2F780FD5CC0832F782A330F8E169F06C1
:101ED00039F7F601319780818F3F11F00E94A406F7
:101EE00050EA5A95F1F7F801EE0DFF1D70828FEF61
:101EF000E81AF80AA4E0EA16F10409F0B0CF48E0C5
:101F000050E0B80188E492E00E944235009741F029
:101F100028E0F801A8E4B2E001900D922A95E1F7DB
:101F200000915102892B69F181E080931E020E9489
:101F3000D70490931D0280931C0280911C02909103
:101F40001D020E94BC04059700F110E006581D4FC9
:101F500044E050E068E472E0C8010E944235B12CD0
:101F6000892B51F084E0E8E4F2E0D80101900D9271
:101F70008A95E1F7BB24B39410921E0207C080E05B
:101F8000A3CF80911E028111D8CFB12C0E94860A66
:101F9000F82EE0915102882309F47EC019861A8632
:101FA0001B861C860E2F10E006581D4F80914302A1
:101FB0008A30E0F540EE5EE0BE01675F7F4FC8010A
:101FC0000E94530A882309F456C048E95EE0BE0126
:101FD000675F7F4FC8010E94530A882309F44BC0F2
:101FE0004AE85DE0BE01675F7F4FC8010E94530A67
:101FF000882309F440C0109243028091500290E07F
:1020000044E050E0BE01675F7F4F86589D4F0E94BD
:10201000423521E020932502892BF9F4F12C1F2D64
:10202000812F8B292C96EDE00C94EE3480911F02C9
:10203000909120020E94BC04843F914008F0BACFE6
:1020400080912502882351F3FE01399684E0DF0157
:102050001D928A95E9F710922502E0915002F0E076
:10206000E658FD4F89859A85AB85BC858083918331
:10207000A283B383D4CF809143028F3F31F08F5F2F
:10208000809343028A3008F4B8CF0E94D70490931B
:10209000200280931F02D4CFF0E0E658FD4F84E089
:1020A000A4E3B2E001900D928A95E1F764E070E05C
:1020B00084E392E00E94E40580933302409172022F
:1020C00050E06091710270E067597D4FCE01099632
:1020D0000E944F3589859A8590933A028093390200
:1020E00062E070E0CE0109960E94E4058093380218
:1020F000C0903B02D0903C02E0903D02F0903E0246
:102100008091210290912202A0912302B091240299
:10211000C816D906EA06FB0611F410E081CFC0927A
:102120002102D0922202E0922302F09224020E9425
:10213000860A182F8111F1CF0E94CB04C61AD70A44
:10214000E80AF90AC0924402D0924502E09246029F
:10215000F092470265CF8091E50390911405892B99
:102160008093A60180911A02882309F180910804C6
:1021700090910904892B29F00E94BC0881110E94CA
:1021800082088091A60190911A02892B8093A60162
:1021900020E088EA91E0FC013191CF0131112F5FFD
:1021A000F1E08E3A9F07B9F721110E9482088091D1
:1021B000E20480959091A60189239091E304892BF4
:1021C0008093A60148E050E060E172E086EA91E089
:1021D0000E944235892BA9F088E0E6EAF1E0A0E10F
:1021E000B2E001900D928A95E1F7E091F004F09150
:1021F000F104309731F00280F381E02D86EA91E01E
:1022000009950895CF93DF93EC01EA85FB8530971C
:1022100019F06C857D8509958B810E94A1088C81C0
:102220000E94A8080E94AB1086E0FE0111928A95D8
:10223000E9F7DF91CF910895CF93DF93EC018D8182
:1022400081FD15C082608D83809114059B81892B4F
:10225000809314058C810E94AF080E94AB10E88522
:10226000F985309721F06C857D85CE010995109216
:10227000ED041092EC048D8180FD03C0CE010E941C
:102280000211DF91CF91089580913A01877F809369
:102290003A0182E00E94A10880913A0184FF06C0C1
:1022A0008F7E80933A0182E00E94AF0880913A01CC
:1022B00085FF06C08F7D80933A0180E20E94AF08BF
:1022C0000E94AB10089590E080E00E94130590E01A
:1022D00080E00E94FD04109214050E94AB10089546
:1022E000809313050E946311089580911305982F20
:1022F0009670963021F488600E9470110895877F4F
:10230000FBCF21E030E001C0220F8A95EAF720954B
:102310008091130582230E947011089590910F02FD
:102320008095892380930F02282F277091F4282FFE
:10233000082E000C330B9217130659F09091E4030A
:1023400092FF07C08595859585950E9481110E9411
:10235000B50808959091E40392FB222720F92817ED
:1023600069F080FB92F99093E4038091E3039091EC
:10237000E4030E947A0C82E00E948E11089521E00D
:1023800030E001C0220F8A95EAF780911305822B75
:102390000E94701108959091E40392FF10C098E09C
:1023A000899F90011124622B60930F020E94BF113C
:1023B0000E94D70490930E0280930D0208950E940C
:1023C000BF11089580931B020E946311089510921B
:1023D000E503E8EAF1E086E0DF011D928A95E9F77E
:1023E0000E9463110895AAE2B0E0E9EFF1E10C94D4
:1023F000DC348BE095E02091F100DC012D93CD01E0
:10240000B5E083319B07B9F780910C05833009F45F
:1024100072C0B8F4813009F449C0823009F4B3C005
:102420008091E80083FF96C280910B0590910C0586
:102430009A3008F08FC2E92FF0E0E554FA4C0C9482
:1024400018358A3009F48EC08B3009F471C0893098
:1024500039F780910B05813219F780910F05909122
:102460001005009711F00297D9F68091E800877F58
:102470008093E8008091E80082FF38C09091F300DB
:102480008091F200029731F48091F100813011F0D7
:10249000863021F48091F1008093FE048091E80061
:1024A0008B778093E8000E94AD03BACF80910B0533
:1024B000813A09F0B5CF8091E800877F8093E800EA
:1024C00080910F0590911005892B61F468E08FEFE2
:1024D00094E070E00E9459048091E8008B7780932B
:1024E000E8009ECF60E090E080E0F3CF80910905A6
:1024F0008111C0CF95CF80910B05813A09F090CF23
:1025000080910F0590911005892B09F089CF80915A
:10251000E800877F8093E8008091E80080FFFCCF8F
:1025200080913C018093F1008091E8008E77B9CFD3
:1025300080910B05813209F073CF80910F05909146
:102540001005892B09F06CCF8091E800877F80937C
:10255000E8000E94AD0380910D0580933C010E942C
:10256000E7115ECF80910B05813209F059CF809140
:10257000E800877F8093E8000E94AD0380910E05FC
:102580008093FD044DCF80910B05813A09F048CF2F
:102590008091E800877F8093E8008091E80080FFC9
:1025A000FCCF8091FD04BECF803899F0823809F0CD
:1025B000D1C180910F058F70873008F0CBC1809317
:1025C000E9008091EB0085FB882780F91092E900F3
:1025D00006C0809107059091080591118260909145
:1025E000E800977F9093E8008093F1001092F1004B
:1025F0008091E8008E77AAC1882309F498C18230BF
:1026000009F0A8C180910D0581119BC180910F0532
:102610008F702FEF280F263008F09CC18093E900BF
:102620002091EB0020FF8DC1933031F48091EB00BD
:1026300080628093EB0085C19091EB009061909354
:10264000EB0021E030E001C0220F8A95EAF72093E9
:10265000EA001092EA008091EB008860EACF8111D5
:1026600079C110910D051F778091E3008078812B4F
:102670008093E3008091E800877F8093E8000E94C8
:10268000AD038091E80080FFFCCF8091E30080687B
:102690008093E30082E0111183E0809309055AC121
:1026A0008058823008F056C120910D0530910E05FA
:1026B0002C3DE3E03E07A1F583E08A838AE289832B
:1026C0004FB7F894DE01139620E03EE051E2E32F8D
:1026D000F0E050935700E49120FF03C0E295EF70C3
:1026E0003F5FEF708E2F90E0EA30C0F0C7968D9379
:1026F0009D932F5F243159F74FBF8091E800877F6A
:102700008093E8006AE270E0CE0101960E945904CD
:102710008091E8008B778093E8001CC1C096E7CFDA
:1027200080910F0590911005432F55274330510597
:1027300009F44AC078F54130510509F485C08BE5AC
:1027400090E0ECE8F4E04230510509F003C120913B
:10275000E800277F2093E8002091110530911205B1
:102760008217930708F49C0140E02115310509F018
:1027700070C041116EC08091E80082FDC9CF809188
:102780000905882329F2853019F28091E80083FF3A
:10279000F2CFBECF4132510509F447C04232510554
:1027A00009F0D8C08330910508F0D4C0FC01EE0FC9
:1027B000FF1FE856FE4F0190F081E02D8B569E4F93
:1027C000DC018C9190E01DC0332721303105E9F008
:1027D0002115310579F022303105F9F0233031052A
:1027E00009F0B8C0E9EFF4E0E4918E2F90E0E9EF52
:1027F000F4E007C0EDE3F5E0E4918E2F90E0EDE327
:10280000F5E0009709F4A6C0A2CFEBE2F5E0E49171
:102810008E2F90E0EBE2F5E0F4CFE7E1F5E0E49114
:102820008E2F90E0E7E1F5E0ECCF8330910508F0E2
:1028300091C0880F991FFC01E256FE4F0190F08174
:10284000E02D89E090E083CF82E190E0E7EEF4E0D4
:102850007ECF80910905882309F45ACF853009F489
:1028600057CF8091E80083FD53CF8091E80082FD2F
:1028700082CF8091E80080FF78CF9091F300809123
:10288000F2002115310519F08830910550F041E032
:10289000089709F040E08091E8008E778093E80087
:1028A00064CF44914093F100319621503109019653
:1028B000E8CF803809F04EC08091E800877F809390
:1028C000E80080910A058093F10092CE811142C008
:1028D00010910D051230F0F58091E800877F80930C
:1028E000E80010930A050E94AD03112311F084E063
:1028F00005C08091E30087FDFACF81E08093090550
:1029000042E061EC81E00E94CC0342E261EC84E0B1
:102910000E94CC0342E261EC82E00E94CC0342E2DE
:1029200060EC83E00E94CC038091090513C0809184
:102930000D05813079F481E0933009F080E08093D7
:1029400008051092E9008091E800877F8093E800F5
:102950000E94AD038091E80083FF0AC08091E800E7
:10296000877F8093E8008091EB0080628093EB008A
:10297000AA96E3E00C94F834E6E0F4E0128E138EAD
:102980008FEA90E09183808385E0848F28E833E1AB
:102990003383228322E330E0378B268B28EC30E030
:1029A000318F208F158E178E168E20E530E031A3E3
:1029B00020A382A30E94F30B0E94E7111092E4036C
:1029C0001092E303E4EEF3E08081846080838091E1
:1029D000E3039091E4030E947A0C0E94BA0A0895DE
:1029E000AEE1B0E0E6EFF4E10C94D234A090360111
:1029F000B090370181E090E09093370180933601E9
:102A00008CE6C82E82E0D82E00E0760110E015C0DA
:102A1000F40125913491472D612F802F0E943B0CAA
:102A200082E0880E911C7394E5E07E12F1CFFAE00B
:102A3000EF0EF11C1F5F183019F04701712CE8CF21
:102A40000F5F80E5C80ED11C0530F9F60E94BC145A
:102A50001A8219821C821B821E821D8218861F8286
:102A600088EC90E09A8789870BE212E04AE050E018
:102A7000B801CE0101960E94A135065F1F4F0B37AA
:102A8000E2E01E0799F77E01FBE0EF0EF11C8AE001
:102A9000F70111928A95E9F74AE050E0B801C701C1
:102AA0000E94A135065F1F4F0B3CF2E01F07A1F704
:102AB0007E0185E1E80EF11C8AE0F70111928A950A
:102AC000E9F78FEF9FEF9A8F898F87E08E8F4AE02B
:102AD00050E0B801C7010E94A135065F1F4F0B31BE
:102AE000F3E01F07A1F7B0923701A09236016E966E
:102AF000EDE00C94EE3480E00E94610C60E086E230
:102B000090E00E947D350E94F0140E942B0C81E021
:102B10000E94610C0895CF92DF92EF92FF928FEFA7
:102B20009FEF4430510508F46AC0FB01C080D1809A
:102B3000E280F3800E94E7118091E303C0FA80F9FC
:102B4000B701A601769567955795479540FB81F9A2
:102B5000B701A60122E076956795579547952A9586
:102B6000D1F740FB82F9B701A60133E0769567956E
:102B7000579547953A95D1F740FB83F9B701A601E0
:102B8000E4E07695679557954795EA95D1F740FB30
:102B900084F9B701A601F5E07695679557954795B5
:102BA000FA95D1F740FB85F9B701A601A6E0769525
:102BB000679557954795AA95D1F740FB86F9B701D8
:102BC000A601B7E07695679557954795BA95D1F7E1
:102BD00040FB87F98093E3038091E403D0FA80F906
:102BE000D1FACC24C0F8C0FA81F98093E403809133
:102BF000E3039091E4030E947A0C90E080E0FF9060
:102C0000EF90DF90CF9008950E94E7112FEF84E3BB
:102C10009CE0215080409040E1F700C0000088E136
:102C20009CE00FB6F894A895809360000FBE909337
:102C30006000FFCF882321F00E94A1080E94AB1002
:102C40000895882339F090911405982B90931405DA
:102C50000E94AB100895882321F00E94A8080E94CA
:102C6000AB100895882321F00E94AF080E94AB109A
:102C70000895882339F19CEF980F913A28F40E9427
:102C8000D6080E94AB10089590E2980F983050F447
:102C9000877091E001C0990F8A95EAF7892F0E9409
:102CA000A808EFCF9BE5980F933028F490E080E0E0
:102CB0000E9413050895885A873120F490E080E03F
:102CC0000E94FD040895FF920F931F93CF93DF930B
:102CD000F82E0091E7041091E8040115110509F49C
:102CE00049C01092E6041092E5041092E20410929A
:102CF000E304D8011696CD91DC919E013A952115F9
:102D00003F4108F4D07ED1E0C11101C0D0E0D8012C
:102D10001996ED91FC911A97309731F01B966D91B1
:102D20007C9180E00995D823DD2339F08CEF8C0F5E
:102D3000813A30F58C2F0E94D608FF2099F0E0915F
:102D4000E704F091E804808584FD0CC08091E404E0
:102D5000882341F0808191819C0121503109203BE1
:102D60003D45A0F00E94AB101092E8041092E704D9
:102D70001092E404C801CDB7DEB7E5E00C94F63458
:102D80000E94AB108C2F0E943916D7CF0E942905C4
:102D9000E9CFCF93DF93EC010E943916CE010E9458
:102DA00093099E01205E31092830310510F0CD2BAA
:102DB00029F40E942B16DF91CF9108950E941A16D4
:102DC000FACFCF93C82F8823A9F08CEF8C0F813ACC
:102DD00098F4E8EAF1E08EEA91E02191C21799F1C6
:102DE0008E179F07D1F76C2F86EA91E00E94E304CB
:102DF0000E94AB10CF91089580E28C0F883048F488
:102E0000C77081E001C0880FCA95EAF70E94AF0839
:102E1000EFCFEBE5EC0FE33040F4F0E0EB5BFE4F7F
:102E2000808190E00E941305E5CFC85AC73110F7A2
:102E3000EC2FF0E0EE0FFF1FE85BFE4F80819181E9
:102E40000E94FD04D7CF8C2F0E94D6080E94AB10A1
:102E5000CACF1F93CF93DF93182FC0912604D09130
:102E60002704893321F0C0912404D0912504812FB7
:102E70000E94E116209739F4812F0E943916DF91C4
:102E8000CF911F9108958FE99FE00197F1F700C05E
:102E900000002197EFCFB0E0A0E0E1E5F7E10C946E
:102EA000D534EC018AE0A82E2881222309F48FC0B2
:102EB0002130C9F599818A81913021F422960E94AE
:102EC000291705C0923029F422960E94E116219616
:102ED000EBCF933021F422960E943916F8CF94302C
:102EE00011F02196F4CF229630E020E0AE014F5F42
:102EF0005F4F8053990B8A30910550F02150310972
:102F000030F38FE99FE00197F1F700C00000F6CFA2
:102F1000A29EB001A39E700D11249C01260F371FA5
:102F20008981EA01E3CFE22FF0E0EF58FA4FB49045
:102F3000822F86958695869590E0FC01EF59FA4F91
:102F4000E4902770F12C022E02C0F594E7940A94C5
:102F5000E2F731E0E322FF24FC01EF5AFA4FC4907C
:102F6000D12C022E02C0D594C7940A94E2F731E026
:102F7000C322DD24FC01EF5BFA4F049110E002C094
:102F8000159507952A95E2F701701127E114F104D0
:102F900019F081EE0E94E116C114D10419F086EEF9
:102FA0000E94E1168B2D0E942917C114D10419F03B
:102FB00086EE0E943916E114F10419F081EE0E94A8
:102FC00039160115110509F482CF8CE278CFCDB7FF
:102FD000DEB7EAE00C94F134B0E0A0E0E2EFF7E114
:102FE0000C94D5347C015B01C42FD22FFC0182816B
:102FF0008823A9F04093EB040E94D7049093EA043D
:103000008093E904C77081E001C0880FCA95EAF790
:103010000E943216CDB7DEB7EAE00C94F13410917D
:10302000EB04141338C08091E9049091EA040E94E3
:10303000BC046C01B701C5010E949C0CC816D906DE
:1030400050F5C0E2CD0F1D17C1F080E2810F88302E
:1030500048F4177081E0012E01C0880F0A94EAF746
:103060000E942B16C83048F481E09D2F977001C054
:10307000880F9A95EAF70E943216802F0E9429172E
:10308000C83040F6D77081E001C0880FDA95EAF7C2
:103090000E942B16BFCFC77081E001C0880FCA9570
:1030A000EAF7F6CFCF93DF93EC010E9493099E01DC
:1030B000205E31092830310510F0209741F40E943C
:1030C00032168C2F0E94E116DF91CF9108950E9455
:1030D0002116F7CF662329F0209114052260209352
:1030E00014059C013056211540E2340720F0305E73
:1030F0002115304108F499270E9452180895B0E034
:10310000A0E0E5E8F8E10C94D8347C018B01D42EE2
:1031100080913A0182FF8CC0C0912C04D0912D0483
:10312000CE15DF0521F0E114F10409F081C0809192
:103130003A018B7F80933A0181FD73C080912A040C
:1031400090912B04A801481B590B81E02091380174
:10315000309139014217530708F480E08170F82E4E
:1031600080913A01F0FA81F980933A01FE0183E0FF
:10317000F695E7958A95E1F7EE71FF27EA51FC4F46
:1031800020813181AE014F70552781E090E002C06F
:10319000880F991F4A95E2F7FF2009F444C0822B5B
:1031A000932B918380838091E50381FF08C08091F8
:1031B0003A01806180933A0182E00E94A8088091E0
:1031C000E50385FF08C080913A01806280933A014F
:1031D00080E20E94A8086F2DCE010E946A18DD20AF
:1031E00031F08091210485FF02C086FF3BC08091B1
:1031F0002404909125040E94490A80912C04909106
:103200002D049C013056211540E2340720F0305E39
:103210002115304108F499270E94C9160E944411D3
:103220001DC081E09BCF8095909582239323B9CFD9
:10323000C701992797013056211540E2340728F03D
:10324000305E2115304108F0C7010E94C9168091F7
:103250002C0490912D048E159F0501F310932B04DF
:1032600000932A04CDB7DEB7E7E00C94F43490E085
:1032700080E00E947735883E9E4F19F40E94B60B7D
:10328000089580E0089568EE7EEF90E080E00E946F
:103290009B3560E082E090E00E947D3560E083E055
:1032A00090E00E947D3510921B0260E084E090E087
:1032B0000E947D3564E082E290E00E947D3560E00E
:1032C00085E090E00E947D3560E086E090E00E941D
:1032D0007D356FEF87E090E00E947D3540E050E063
:1032E000BA0188E090E00E948F3560E08DE090E0C8
:1032F0000E947D3540E050E0BA0188E190E00E94F4
:103300008F3560E087E190E00E947D3540E050E03D
:10331000BA018CE190E00E948F3570E060E080E2BD
:1033200090E00E949B3540E050E0BA0188E190E0D7
:103330000E948F3580E00E94610C0E947B1540E066
:1033400050E0BA018FE090E00E948F3540E050E0FD
:10335000BA0183E190E00E948F350895A7E0B0E0C4
:10336000E4EBF9E10C94CD347C01DC0113964D9132
:103370005C91149711966C9111978C910E949A050B
:103380008111EEC061E0C7010E94A80B8C01F7011A
:1033900082818823E1F08091EC049091ED04009704
:1033A000B1F00817190799F0FEE08F9FC0011124B2
:1033B000FC01E756FD4F2081246020838C569D4FF1
:1033C000DC010D931C930E941C1110921405F7014F
:1033D0008281882311F40C946222C80182519F4596
:1033E000409710F00C9456228FEF93E00E946F35B7
:1033F0008111A6C07EEED72ED00E0BE113E0D110C6
:1034000036C019821A821B821C8299249A94680100
:103410002FEFC21AD20AC8010E946F3589831A821F
:10342000882309F48DC0813009F07FC0580132E053
:10343000A30EB11CC6010E946F35C82E8A83882353
:1034400009F47EC0C5010E946F35D82E8FEF8C0D18
:103450008330D8F4580143E0A40EB11CDB82DD2098
:1034600021F0CE0101960E944B178501D0CF0115A6
:10347000F4E01F0709F464C0C8010E946F35811190
:1034800001C0DA940F5F1F4FBACF8BEF8C0D8330E2
:1034900030F5C8010396DB825C01DD2031F3580171
:1034A00054E0A50EB11C0E946F358C838823E9F28D
:1034B0008B819C818130AFEF9A0710F0982F88277D
:1034C000B6E0CB1631F0E7E0CE1631F00E94D029FD
:1034D000CCCF0E94AA29C9CF0E943129C6CFF4E0DF
:1034E000CF12C3CF580124E0A20EB11CC80103962D
:1034F0000E946F35DD2021F1882311F18150990B55
:10350000989E9001999E300D11244D2D4150550BE0
:10351000CA01820F931F019708F4A7CFAFE9BFE05C
:103520001197F1F700C00000F6CFCE0101960E947E
:103530004B1756019ACF81E00E94BF110E9475116E
:1035400080910F02877061F0D70112968C918823C9
:1035500039F08091E40382FF03C082E00E948E1163
:103560002796E2E10C94E93481E00E948111E6CFD4
:1035700082E0FBCF823009F0E3C780918E02909108
:103580008F02892B09F4DCC72EE02C9DC0012D9DF4
:10359000900D1124FC01E756FD4F20812E7F2083E2
:1035A0008C569D4F0E941C11CBC781E08093000177
:1035B000C7CF80910001882309F4A4C6480120EEFA
:1035C000821A910840901A028091B101482A809194
:1035D000E503482A38E08316910408F086C0980174
:1035E0002770332781E090E001C0880F2A95EAF721
:1035F000552009F477C0482AD7018D919C910E94EB
:103600000D0921E030E0F90102C0EE0FFF1F8A959D
:10361000E2F7FF83EE832090E7043090E8046090A7
:10362000AE017090AF011D822D81E22FF0E0EE0F10
:10363000FF1FEB5AFC4FC080D180C114D10409F4A4
:10364000C5C6411005C0D60112968C91811189C062
:10365000F601838190E02E813F8182239323892B81
:1036600009F47FC08085982F977009F487E038E0CF
:103670008316910408F053C0552009F44CC0869578
:103680008170882309F46DC0D601AD90BC900A15F5
:103690001B0519F4552009F464C0C214D30409F4BD
:1036A00060C0D6011D96ED91FC91309721F080818C
:1036B000882309F456C0642DC6010E947A05882328
:1036C00009F44FC00A151B0509F08DC70115110536
:1036D00009F48EC751108EC7A614B70409F041C073
:1036E000512C88C78095482287CF552009F457C6AA
:1036F0001093AF010093AE010E94CB046093DE04EF
:103700007093DF048093E0049093E1041092E60448
:103710001092E50471CF82FB882780F9B2CF552043
:1037200001F18170AECF0E94391682C70497813AA9
:10373000910558F46A2D86EA91E00E94E304552031
:1037400009F4E0C50E94AB10FBCE0E94AB108FE3E2
:103750009CE90197F1F700C000008A2D0E94E11654
:10376000EECF9D819F5F9D835FCFFC0120813181E2
:103770000217130709F0BFC55110BFC51092E4042A
:1037800080E00E946316BEC5902F812F03C6F90109
:10379000858181FF2FC6C9010E9402112BC680912D
:1037A0003A01816080933A0153C680913A018E7F3D
:1037B00080933A010E9444114BC680913A018F7E5A
:1037C000013E110531F0053E1105C9F480913A0121
:1037D0008F7D80933A0180913A0180FF48C6D701DE
:1037E00012968C910832110528F50E31110508F05A
:1037F00072C00430110580F5811135C638C6C80184
:103800009056811540E2940720F0905E811590411A
:1038100010F780913A0182FF2AC68091230481FD2E
:1038200026C621E632E040E0B60190E080E00E944A
:103830007F181DC60933110558F40D32110518F40F
:103840000B321105C9F69091210492FDD5CF08C025
:1038500004361105C1F3D0CF9091210494FDCCCF53
:10386000882309F4A8C080911A029091E503892B5E
:103870008D7FB1F110922D0410922C0480912104BF
:1038800081FD2EC0F80143E0F695E7954A95E1F7F2
:10389000EE71FF27EA51FC4F98012F70332781E02A
:1038A00090E002C0880F991F2A95E2F780959095C5
:1038B00020813181822393239183808360E0C8013A
:1038C0000E946A1880911A028D7F0E948D0882E002
:1038D0000E948E1135CE9091210493FD8DCFC0CFE3
:1038E00088E0F701A1E6B2E001900D928A95E1F738
:1038F00010926302109265021092640280912C046F
:1039000090912D0408171907D1F52091210425FF66
:1039100036C030913A0131FF02C026FF30C02091FD
:103920002A0430912B045601A21AB30AB7010E944F
:103930009C0CA816B90618F58091E50381FF08C014
:1039400080913A01806180933A0182E00E94A80848
:103950008091E50385FF08C080913A0180628093E1
:103960003A0180E20E94A80860913A016695617070
:1039700080912C0490912D040E946A18E1CD8091D1
:103980001A029091E503982B20913A0191FB21F9BD
:1039900020933A018D7F0E948D0810932D0400938F
:1039A0002C04D0922B04C0922A0480913A018460A6
:1039B00080933A018CCF970140E0B601C8010E9484
:1039C0007F18BECD053F4CE5140709F463C008F429
:1039D0005BC0063F8CE5180709F462C0D701129658
:1039E0003C91332309F4CCC51092EB040330BDE5C0
:1039F0001B0708F061C00A3FECE51E0730F4C80160
:103A000082509C45449708F063C00E94CF0B90936E
:103A1000E4038093E30302315CE5150709F49EC1DA
:103A200008F0EEC009309CE5190709F475C108F0EB
:103A3000B8C00530BCE51B0709F462C108F09FC09F
:103A40000330FCE51F0709F453C108F055C180910C
:103A5000E303816002303CE5130709F4CEC0809196
:103A6000E3039091E4030E947A0C0E94E71168CD71
:103A700007E225EE45EE68ED7CE514C506E221EE91
:103A800040EE63EF7CE50EC507E225EE44EE64EF01
:103A90007CE508C506E221EE42EE65EF7CE502C555
:103AA00007E225EE46EE66EF7CE5FCC408E221E085
:103AB00045EE69ED7CE5F6C4053AFDE51F0709F41E
:103AC000A4CF08F055C001364DE5140709F49DCF89
:103AD00006318CE5180709F458C50A355DE5150768
:103AE00009F495C108F06EC101159CE5190709F4A8
:103AF00074C10E3D1C4509F47DC1F7018681978193
:103B0000009709F488C10E94FE06182F092FF701BB
:103B1000C280D580D2943FE0D32280910F0287707B
:103B2000C1F0AC2CCC20B1F0892F807F803421F003
:103B300080E2810F883068F08091E40382FF09C041
:103B400082E00E948E1180910F028770AA24A394B4
:103B50008111A12C902E92942FE09222FBE0F91576
:103B600008F4E6C1E92DF0E0EB53FA4C0C9418355B
:103B7000C8018D5A9D45039708F0AACF46CF809182
:103B8000E303806207304CE51407B9F18091E30349
:103B9000806108305CE5150780F18091E303806463
:103BA0002CC00D308CE5180709F4C0C090F480914A
:103BB000E3038E7F0B30ACE51A07F9F08091E30345
:103BC0008C600C30BCE51B07C0F08091E3038D7F57
:103BD00014C00F30ECE51E0709F4B8C008F4AAC001
:103BE00000312CE5120709F4B5C08091E3038F7B07
:103BF00001313CE5130709F032CF8093E3032FCF67
:103C00000F3F4CE5140709F4B3C0A8F50A3F8CE553
:103C1000180709F479C0C0F40431ACE51A0709F4B7
:103C2000B5C008F4A1C00531ECE51E0709F017CFB7
:103C30008091E30382FB992790F921E0922790FB82
:103C400082F990FB83F9D9CF0C3FFCE51F0709F4FB
:103C500075C008F45DC00D3F3CE5130709F472C060
:103C60008091E40383600E3F4CE5140709F0F7CE22
:103C70008093E403F4CE01365DE5150709F491C0A5
:103C800090F401309DE5190709F489C008F474C067
:103C900060E00230BDE51B0709F0E1CE8EE090E068
:103CA0000E947D35DCCE0D3AEDE51E07E9F060F4AB
:103CB0009091E303892F8E7F90FF8160053A2DE577
:103CC000120709F49ACFCBCE0E3A3DE5130751F116
:103CD0000F3A4DE5140709F0C2CE9091E403892F05
:103CE000877F93FF8860C4CF8091E4038860C0CF52
:103CF0008091E303826081CF8091E30384607DCF74
:103D00008091E303886079CF8091E4038160B0CF34
:103D10008091E4038260ACCF0E94E7118091E303BD
:103D200080686BCF8091E403877FA2CF8091E3030B
:103D30008B7F63CF8091E303877F5FCF8091E40324
:103D40008E7F96CF8091E4038D7F92CF8091E303A5
:103D50008F7E53CF8091E3038F7D4FCF0E94E71179
:103D60008091E3038F7749CF8091E303837F45CF31
:103D70008091E4038C7F7CCF8091E403982F909511
:103D800091708E7F892B90FB81F972CF0E94E71191
:103D90009091E303892F97FB87F980582ECF61E03C
:103DA0007DCF9091E303892F8F7E94FF806125CF93
:103DB0008091B001811104C089E20E94D608C2CC72
:103DC00085E3FBCF0C35BDE51B07B9F010F1073AD1
:103DD0001D4509F092CE0E9404160E94E7112FEFB4
:103DE00034E34CE0215030404040E1F700C0000097
:103DF0000E94250A0E944319EECF8091E40382FBC2
:103E0000882780F991E089270E94AA1176CE81E067
:103E1000FBCF80E0F9CF828100811181882369F096
:103E2000C8010E942C0BD82E682FC8010E9441099E
:103E3000B8018D2D0E940F0B66CEC8010E940D099E
:103E4000D82EF6CF202F2F70B22E802F807F19F022
:103E5000B29490EFB922CC20A9F0BB2059F080E2B7
:103E6000810F883010F0111107C08B2D0E94AF0810
:103E70000E94AB10812F5AC080911405B82AB092CD
:103E80001405F6CF812F0E943916BB2009F450C0CB
:103E900080E2810F883010F0111104C08B2D0E9438
:103EA000A80803C08B2D0E94A1080E94AB1040C03F
:103EB000302F3F70B32E802F807F803219F0B29464
:103EC00080EFB822112321F1113009F4AEC0CC20CB
:103ED00009F4B7C0DD2009F47FC020E0D7014C9180
:103EE00011965C91119712966C91129713967C9192
:103EF000139714968C910E94850B8091230481FD69
:103F0000B9CFF701858180FFB5CF8F70858364C0FD
:103F10008091E40382FD40C0CC20C1F1BB2029F098
:103F20008B2D0E94AF080E94AB1080E00E94E1162A
:103F3000A92DA850BB0B149710F40E94A90A812F39
:103F4000902F0E9478098111B7C11092B30110928D
:103F5000B201AA20B1F080910F0280FD12C0D701FA
:103F600012961C928595859585950E94BF11C70173
:103F70000E94AE1980910F028595859585950E94C6
:103F8000811160E0C7010E94A80BEACA80E00E948C
:103F90003916BB2069F282CFCC2011F1D11004C0B8
:103FA00080911A028B2919C041E0D41206C0809179
:103FB0001A028B290E948D08BBCF80912204823087
:103FC00078F3D812EDCF0E9482089091B1018B2D29
:103FD000892B89138093B1018B2D0E943216A8CFB3
:103FE000D11003C00E94820817C08091220451E0C2
:103FF000D51216C0823008F49BCF8091E5038B2147
:1040000009F496CF0E9482089091B1018B2D809582
:10401000892389138093B1018B2D0E942B1688CFA1
:10402000823000F3D812DECF83CF80912804CC20D9
:1040300021F08D1508F47CCFCFCFD81608F078CFBB
:10404000EBCFDD2049F380912604909127041933AA
:1040500021F080912404909125040E94490A812F27
:104060000E94391665CF802F86958695837069F0FA
:10407000813009F05DCF812F902F9370C11002C065
:1040800090E080E00E94FD0453CF812F902F937029
:10409000C11002C090E080E00E94130549CF802F3C
:1040A000837091F5C11044CF412F429546954770DA
:1040B000440F440F812F8F70042E01C0880F0A9483
:1040C000EAF7212F207114FF07C02FE030E001C074
:1040D000220F4A95EAF72095302F369536953370A2
:1040E000323069F050F440911B02313029F0822BBC
:1040F00084230E94E2111CCF842B822BFACF282B21
:1041000080911B028227F5CF8695CC2011F0802F5D
:104110008170882309F40CCF412F42954695477052
:10412000440F440F812F8F70042E01C0880F0A9412
:10413000EAF7212F207114FF07C02FE030E001C003
:10414000220F4A95EAF72095302F36953695337031
:10415000323069F050F440911305313029F0822B50
:1041600084230E947011E4CE842B822BFACF282B5B
:10417000809113058227F5CFF02FFF70BF2ECC2042
:1041800029F08F2F0E94BF11812F27CF812F0E94EE
:104190002B168B2D0E948111CBCE123F89F160F43A
:1041A000103FB9F0113F81F0CC2009F480C0D1104C
:1041B00061CE802F8F7128C0133F49F1143FA1F7C2
:1041C0008091E40382FD2FC0802F8F71CC2011F3EA
:1041D0001BC080912804CC2079F0D81608F0A8CE16
:1041E000202F2F7181E090E001C0880F2A95EAF717
:1041F000909113058927B5CF8D1508F499CEF0CF8E
:10420000802F8F71C110C6CF0E94BF1191CE80E068
:10421000CC2009F4A6CF81E0902F9F7101C0880FB8
:104220009A95EAF79ECF80912204823040F1CC200B
:10423000D1F090910F029770943041F40E94B5082C
:10424000802F8F710E948111A12C72CED816E0F7B9
:10425000202F2F71B22E822F0E94BF1163E08B2D71
:104260000E94CB11F1CFD81630F00E94B50864E05F
:10427000802F8F71F5CF81E00E948E11E5CFCC2089
:1042800059F0302F3F71B32E832F0E94BF1163E08E
:104290008B2D0E94CB114CCE81E00E948E1141E00B
:1042A0004D1508F045CE82E00E948E1141CED1100E
:1042B000CACE802F8F716ECFCC2019F0D11045CE91
:1042C00048CED11042CE20E0F70140815181628179
:1042D000738184810E94850B8091230483FF35CEF6
:1042E0008091B2019091B301029709F02ECE812FF7
:1042F0000E9429172ACE552029F0DC0118968C91AE
:1043000085FF3ECAC80197558F3F910511F008F00F
:1043100071C05801BB24BEE00B9FF00111249F0126
:104320002C563D4F6901D70112968C91E756FD4FEF
:10433000908180FB90F99083882309F428CA0E9419
:10434000D7049093600280935F02F60182818F5FB1
:104350008283809114059091E503892B838380915A
:104360001A0284830680F781E02D309731F0D60160
:104370001C966D917C91C60109958EE08A9DF00195
:104380008B9DF00D1124EC56FD4F858181FFFCC9FA
:1043900090E080E09093EC048093ED042BC080913A
:1043A000AE019091AF010817190781F41092AF0187
:1043B0001092AE011092DE041092DF041092E0041D
:1043C0001092E1041092E6041092E5048091E70453
:1043D0009091E804009709F495CFA8E08A1691041B
:1043E00008F0C3C9642D0E947A05811103C081E0E1
:1043F0000E9463168091210480FF39C00E94D70477
:104400006C01D70112968C91882309F4D6C980914A
:104410003A0182FF08C021E632E040E0B60190E0B8
:1044200080E00E947F180B31BCE51B0709F4B7C977
:104430000C31ECE51E0709F4B8C990913A01892FB7
:104440008E7F90FF81600A31FCE51F0709F4B0C937
:10445000C8019056811520E2920728F0905E8115E0
:10446000904108F0B8C910922D0410922C04033F1B
:10447000BCE51B0709F402CB08F0A4CA083DFCE523
:104480001F0709F4F5CA093D2CE5120709F40ECB04
:10449000073D3CE5130709F0A1CA06E221EE41EE13
:1044A00067ED7CE5C7010E94EC174AC80031FFE5C3
:1044B0001F0709F440C801312FE5120709F040C079
:1044C00082E03AC800313FE5130709F44DC80131D5
:1044D0004FE5140709F44CC86801E7E5DE1AFFEF61
:1044E000CF16D10409F060F56AE872E08C2D0E94C5
:1044F000880C892B29F58EE08C9DF0018D9DF00DA7
:104500001124EC56FD4F8281813009F033C880912F
:104510008A0290918B02892B99F080918C02909164
:104520008D02892B69F080918E0290918F022091EB
:10453000900230919102822B932B892B09F424C88D
:10454000D70112965C90552009F433C80F35BDE5AC
:104550001B0709F42AC80036EDE51E0751F00E3599
:10456000FDE51F0709F025C880910001882309F4A3
:104570001CC81092000180E00E9463160C94A01ADF
:1045800006315CE5150709F0B8CA8091E503982F5C
:104590009A7A2091200420FF04C0482F447409F027
:1045A00090E021FF04C0482F417109F090E022FF04
:1045B00004C0482F487809F090E023FF03C08272BE
:1045C00009F090E0332309F4F3CB81E0911101C0AD
:1045D00080E08093B00169E2911165E386EA91E0A1
:1045E0000E94E304AFC8A114B10409F075C8512CAE
:1045F000B12CA12C80E00E946316D092E804C092F6
:10460000E70481E08093E404F60185818093E2046D
:1046100051100EC0AB2861F0F601808191819C01A0
:1046200024503109213A310508F07DC80E94D6088E
:10463000D6011696AD90BC90C5019A9581159F4103
:1046400010F4E0EEBE2277247394C5010197803BFD
:104650009D4508F0712CD6011996ED91FC911A97A1
:10466000309731F01B966D917C9181E0099578220D
:10467000772079F0F601868197810E9493098093D3
:10468000E304C501F8E08F16910408F04FC80E94BA
:1046900029050E94AB1053C8B0E0A0E0E2E5F3E2C8
:1046A0000C94D7348091C801807F31F48091C5018A
:1046B000C0910C02811107C0CDB7DEB7E8E00C94C1
:1046C000F3342196C7708091CB018C17A9F3F09039
:1046D000C301E090C401C090C601D090C701A601FB
:1046E0006E2D8F2D0E949A05D0E08111EACF8E01A8
:1046F00083E0000F111F8A95E1F7F801E453FE4FA4
:1047000081818E11DECF80818F11DBCF828181117B
:10471000D8CFE380F480EC18FD0860E083EC91E0F2
:104720000E94A80B63EC71E00E949C0CE816F9064D
:1047300040F68091C8018F7080618093C801F801B4
:10474000EF52FE4F80818F708061808383EC91E017
:104750000E94AE190E940309AFCFA5E1B0E0E3EBE0
:10476000F3E20C94D0348C0185E0F801DE0151961F
:1047700001900D928A95E1F7D8015C9011966C90AA
:1047800011971296EC9012971396CD90DC9060E002
:1047900083EC91E00E94A80B83ECA82E81E0B82E58
:1047A0008090C6019090C701A4016091C4018091DE
:1047B000C3010E949A058111A8C1F090C501F601BC
:1047C000E819F9094F0160E0FF2009F44BC1C50168
:1047D0000E94A80BB5010E949C0C7090C80188161D
:1047E000990608F0F2C04091C6015091C701B090FF
:1047F000C301A090C401872D807F6A2D09F08CC071
:104800008B2D0E949A05FE2C811127C0D80111968C
:104810008C9111978A1121C08C918B111EC020910F
:10482000C9013091CA0116968D919C9128173907BC
:10483000A1F4E11012C0872D8F7080618093C801B0
:1048400083EC91E00E94AE198091C801F801858344
:104850008F2D6596EFE00C94EC34A601662D852D26
:104860000E949A05D82E81E08E25D11080E080FF2D
:1048700018C04E2D662D852D0E94E308882389F0EF
:104880008091230480FF0DC083EC91E00E94AE195B
:1048900088E0E3ECF1E0DF011D928A95E9F7F12C65
:1048A000D7CF81E08E25D11080E0B82FB170CB2E0C
:1048B00080FF29C04E2D662D852D0E94E308D82E3D
:1048C000811121C0598A6A8A89899A890E945B0B61
:1048D000292F22952F70223050F0243078F49F70C9
:1048E00051F0F8019581907F31F4FD2CB1CF9F708C
:1048F00011F08823D1F3805E8830B8F3C8010E949C
:10490000AE19DC2CF2CFEE2009F4A2CF8091C801C1
:1049100081608093C801C3CF8B2D0E949A058111BD
:1049200024C0D80111968C9111978A111EC08C91C8
:104930008B111BC02091C9013091CA0116968D912F
:104940009C9117972817390781F4E1100EC015962E
:104950007C92C8010E94AE1988E0F801A3ECB1E096
:1049600001900D928A95E1F773CFC8010E94680B00
:10497000882339F1EE2029F18091C8018032A0F01E
:104980002091C3013091C4013A8729871B86DD86B7
:10499000CC868E878091C9019091CA01988B8F87B0
:1049A000CE0109960E94AE1988E0F801A3ECB1E0AF
:1049B00001900D928A95E1F70E944C23FF24F39415
:1049C00047CFC8010E94AE19F9CF872D807F09F427
:1049D0005BCF9090C3018090C4014091C60150917B
:1049E000C701682D892D0E949A0581111CC0F8010C
:1049F0008181881118C08081891115C02091C90159
:104A00003091CA01868197812817390761F4E11036
:104A10000AC07582C8010E94AE1988E0D5011D92B6
:104A20008A95E9F715CFC8010E94680B882349F2DF
:104A3000EE2039F28091C801803208F4B5CF209180
:104A4000C3013091C4013A8329831B82DD82CC8269
:104A50008E838091C9019091CA0198878F83CE017E
:104A60000196A0CF83EC91E00E94A80B63EC71E06B
:104A70000E949C0C8816990680F6FE2CEE2009F404
:104A8000A0CFE090C301D090C4014091C6015091E5
:104A9000C7016D2D8E2D0E949A05811128C0F80145
:104AA00081818D1124C080818E1121C02091C90186
:104AB0003091CA018681978128173907C1F4809106
:104AC000230482FD49CF9091C80190FD45CF907F8E
:104AD00009F442CF8091C8018583903F09F439CF12
:104AE000982F907F905F8F70892B858332CFC8017C
:104AF0000E94680B811158CF8091C801816080931A
:104B0000C801C8010E94AE19A3CEEE2009F459CF06
:104B1000C8010E94680BF82E882309F452CF88E060
:104B2000F801A3ECB1E001900D928A95E1F7809134
:104B3000C3019091C4010E945B0B0E944C2388CE5C
:104B4000A0E1B0E0E6EAF5E20C94DD3429873A878B
:104B50004B875C876D877E878F87988BCE01099600
:104B60000E94AD2381112FC088E0FE013996DE013D
:104B7000119601900D928A95E1F74C855D856A85C5
:104B800089850E949A0581111EC0A091CB01B0E0D9
:104B9000CD0101968770992720910C0228171906DC
:104BA000E1F093E0AA0FBB1F9A95E1F7A453BE4F23
:104BB00098E0FE01319601900D929A95E1F780936D
:104BC000CB010E94030980910C029091CB018913C3
:104BD00012C06096E2E00C94F9340E94E711109242
:104BE000CB0110920C0288E0E3ECF1E0DF011D92B2
:104BF0008A95E9F7E8CFB8E08B9FC0011124845370
:104C00009E4F0E94AD23882321F380910C0290E0F7
:104C100001968770992780930C02D5CFEF92FF926F
:104C20000F931F93CF93DF9380913104882361F01A
:104C3000C09130048CE0F82E80913104C81748F000
:104C40001092310410923004CDB7DEB7E6E00C9438
:104C5000F534EE24E394EC0EE09230040C2F10E0D7
:104C6000CF9DE0011124CE5CDB4F4B815C816981DB
:104C700088810E949A0581111DC08E819F81892B98
:104C800021F488859985019651F4288139814A81DA
:104C90005B816C817D818E819F810E94A025F09E29
:104CA000F001F19EF00D1124EE5CFB4F1482138293
:104CB00010921405CE2DC0CF1092D5041092D404BA
:104CC00010923B018091D3048093D2040E94D305BB
:104CD0000E940E260895B0E0A0E0E1E7F6E20C9411
:104CE000CE34C091D20497E0892E01E010E02CE090
:104CF000322E3EEF932E442443948091D3048C13A0
:104D000009C00E940E260E94D305CDB7DEB7E1E1AF
:104D10000C94EA34D0E0FE01EE0FFF1FE653FB4F88
:104D200080819181889ED001899EB00D1124AE565C
:104D3000BB4F14962C911497211158C050903104F8
:104D4000E2E3F4E030E020E0712C5D01251508F08D
:104D50004BC0E284F384D501CD90DC906FEF7FEF00
:104D6000612C462D50E0DA01AA0FBB1FAC0DBD1D12
:104D70000D90BC91A02D109731F0EA16FB0609F4B6
:104D8000BA016394EECF6F3F7607A9F1D80102C054
:104D9000AA0FBB1F6A95E2F77A2AB801062C02C057
:104DA000660F771F0A94E2F7AB0141505109741660
:104DB0001506F9F4329EF001339EF00D1124EE5CDD
:104DC000FB4F889ED001899EB00D1124AE56BB4F7B
:104DD00012962D913C91139737832683908291826E
:104DE0009187808715964C920E94A5052196C370E5
:104DF00084CF148213822F5F3F4F3C96A7CFA9E147
:104E0000B0E0E5E0F7E20C94CD34942F498B252FE8
:104E10005A8B6B8B7C8B8D8B4C895D89622F892F94
:104E20000E949A05811109C08091B2019091B3014D
:104E300001969093B3018093B2018B8981111092F6
:104E400014051D861E861F86188A85E0FE01719650
:104E5000DE01199601900D928A95E1F78091E403A5
:104E600082FF1EC08091080490910904892BC1F033
:104E70000E94D70420910D0230910E02821B930BE9
:104E800020910804309109048217930720F0809143
:104E90000F0282FFE2C10E94BC0881110E948208B9
:104EA0004C855D856A8589850E949A05811111C0AE
:104EB00061E0CE0109960E94A80B6C018B8527EF5B
:104EC000C2162CE5D20681F4882321F181E080937B
:104ED0003B0129853A854B855C856D857E858F856F
:104EE00098890E94A025C6C038EFC3163CE5D306BA
:104EF00029F4882379F00E945C26EBCF49EFC41691
:104F00004CE5D40639F4882329F080913B018111C6
:104F1000F2CFDCCF02E914E0512CB12CA12C2224D9
:104F20002394312C2EEF422EF801408151818824A8
:104F30008A94982C20E0822F90E0FC01EE0FFF1F56
:104F4000E40FF51F608171816115710531F0C6169E
:104F5000D70609F44C012F5FEECFF12CFFEF8F162F
:104F60009F0609F449C0F8014481F0903B018F2D60
:104F7000411180E0F82FF170FF2EF801E580868165
:104F80009B85992309F4F8C0FF2009F4F5C06090CF
:104F90001C0470901D04E11013C0A101082C01C075
:104FA000440F0A94EAF7842B868380912E04909113
:104FB0002F048615970520F470922F0460922E041A
:104FC000C10102C0880F991F2A95E2F70197F801E5
:104FD00026812817190681F48091D4049091D50474
:104FE000009709F44BC00E94BC046816790608F0CB
:104FF00045C021E0F80124835F28FFEFAF1ABF0A04
:10500000095F1F4F28E0A216B10409F08DCF8B85F0
:10501000882309F40DC1552009F40AC10E94D70460
:105020009093D5048093D40480913104883010F596
:1050300091E0980F9093310498E0FE013996DE01DB
:10504000119601900D929A95E1F73CE0839FC00183
:1050500011248E5C9B4F28E0FE013196DC0101900B
:105060000D922A95E1F72FEF3FEFFC013187208762
:10507000D386C2866996E2E10C94E9348091D20429
:105080005091D304982FF0E0E0E0851314C0909382
:10509000D204E017F10709F4AFCF90E0FC01EE0F66
:1050A000FF1FE653FB4FB182A082019683709927C0
:1050B0008093D304A1CF682E712CF301EE0FFF1F54
:1050C000E653FB4F2081318147E0429FD001439F4F
:1050D000B00D1124AE56BB4F6D917C911197798F15
:1050E000688F40E020E030E0E32FF0E0EE0FFF1F9C
:1050F000688D798DE60FF71F80809180811491046F
:10510000E1F0F8010190F081E02DFF8BEE8B20E0C3
:1051100005C08616970609F44F2D2F5FE22FF0E0A9
:10512000EE0FFF1F6E897F89E60FF71F6081718187
:105130006115710571F73F5FD7CF4423D1F0F801B6
:10514000231708F0FD0121E024830E171F0721F427
:105150009093D204F42E50CF981305C0AE17BF071A
:1051600011F49F5F937093012F5F3F4F822F8370E5
:105170008CCFF0E0E0E0F7CF90E0E11020C0B1018B
:1051800002C0660F771F2A95E2F79B012150310973
:105190008217930731F4442309F448C0C5010E94E3
:1051A000A505C101082C01C0880F0A94EAF7982FC1
:1051B0009095F801868189238683FE2C1DCF9C0162
:1051C000082C02C0359527950A94E2F7A901417091
:1051D0005527BC016150710986239723892B11F54E
:1051E000452B01F1F80182819381892BC1F01B824B
:1051F0001C821D821E8249824A820E94D7048160DD
:10520000582F9D838C83F801828193818F839887A7
:1052100029813A814B816D817E810E94A025F80110
:105220001582BFCFF22FF170EF2EBBCFEF2CB9CF8D
:105230009091D2048091D304981731F00E946B268C
:10524000552009F446CE16CF0E940E261092D504A2
:105250001092D4040E94D305F3CF82E00E948E11F5
:105260001ACEA5E0B0E0E7E3F9E20C94DD349093C8
:10527000E0038093DF03811520E2920730F40E945F
:10528000C9162596E2E00C94F93480EF89838A836D
:105290001B820E94D7048160782F9D838C83498173
:1052A0005A816B818D810E94FF26EBCF0F931F9354
:1052B000CF93DF938C01EB016AE872E08C2F0E94A0
:1052C000880C892BA1F480912404909125040E94DC
:1052D000490ADD27CE57DD4F8881F80112821882F6
:1052E0008330F1F048F4813059F0823081F0DF9161
:1052F000CF911F910F9108958430B9F08530B9F79F
:1053000080918A0290918B02009789F306C0809168
:105310008C0290918D02009799F30E943129E7CF7A
:1053200080918E0290918F02F6CF809190029091A1
:105330009102009791F720918A0230918B0280911F
:105340008C0290918D0221153105F1F2009729F719
:10535000C901E3CFA5E0B0E0E0EBF9E20C94DD3465
:105360009093E0038093DF03811520E2920730F4ED
:105370000E9452182596E2E00C94F93480EF89835C
:105380008A8381E08B830E94D7048160782F9D837C
:105390008C8349815A816B818D810E94FF26EACFDF
:1053A000CF93DF93EC010E94AA298091240490916D
:1053B00025040E94490ACE010E943129DF91CF9134
:1053C00008950F931F93CF93DF938C01862F6AE884
:1053D00072E00E94880C892BB1F4C0918A02D091AE
:1053E0008B02209781F0F8018281833051F4CE0145
:1053F0000E94D029CE010E94D029CE010E94D0293E
:1054000002C08430D0F7DF91CF911F910F910895A2
:105410000F931F93CF93DF938C01EB016AE872E047
:105420008C2F0E94880C892B09F05CC0FE01FF279D
:10543000D80112968C911297EE57FD4F8130B9F436
:1054400015969C9192FF02C080830AC090FFFCCF0A
:1054500082E0808380918C0290918D020097B9F454
:1054600080918A0290918B020097E1F110C0823006
:10547000B9F515968C9182FD28C080FD0BC083E0A4
:10548000808380918E0290918F02009701F10E949B
:10549000AA2928C084E08083809190029091910293
:1054A0000097A9F780918A0290918B020097F9F0FA
:1054B0000E94D02980918C0290918D02009739F73B
:1054C00080918A0290918B02E2CF85E08083809167
:1054D0008A0290918B02009729F00E94D029F0CF88
:1054E00086E08083DF91CF911F910F910895809185
:1054F0008C0290918D02B8CF1F920F920FB60F922F
:1055000011242F933F934F935F936F937F938F93C8
:105510009F93AF93BF93CF93DF93EF93FF93D0917C
:10552000E900DF708091EC00C82FC17080FDC0E8F9
:105530001092E9008091F000877F8093F0007894CA
:105540000E94F3111092E9008091F000886080932E
:10555000F000CD2BCF70C093E900FF91EF91DF9168
:10556000CF91BF91AF919F918F917F916F915F91FB
:105570004F913F912F910F900FBE0F901F90189554
:105580001F920F920FB60F9211242F933F934F93B8
:105590005F936F937F938F939F93AF93BF93EF939B
:1055A000FF938091E10082FF09C08091E20082FFB9
:1055B00005C08091E1008B7F8093E1008091DA004B
:1055C00080FF24C08091D80080FF20C08091DA0045
:1055D0008E7F8093DA008091D90080FF9DC080E1AA
:1055E00089BD82E189BD09B400FEFDCF81E08093D1
:1055F00009058091FC04811109C00E9433030E94B7
:10560000FE038091E20084608093E2008091E100DB
:1056100080FF17C08091E20080FF13C08091E200FC
:105620008E7F8093E2008091E20080618093E200AF
:105630008091D80080628093D80019BC85E0809367
:1056400009058091E10084FF2BC08091E20084FF76
:1056500027C080E189BD82E189BD89B5982F91700D
:1056600080FFFBCF8091D8008F7D8093D800809100
:10567000E1008F7E8093E1008091E2008F7E809335
:10568000E2008091E20081608093E20080910A054F
:10569000882309F447C084E08093090580910905B7
:1056A0008091E10083FF27C08091E20083FF23C047
:1056B0008091E100877F8093E10082E0809309057B
:1056C00010920A058091E1008E7F8093E100809125
:1056D000E2008E7F8093E2008091E20080618093FF
:1056E000E20042E060E080E00E94CC038091F000A4
:1056F00088608093F000FF91EF91BF91AF919F91EF
:105700008F917F916F915F914F913F912F910F906A
:105710000FBE0F901F90189519BC1092090510929A
:10572000FC0474CF8091E30087FD93E0909309051A
:10573000B5CF78941F921FB61F9211248F939F9319
:10574000AF93BF938091F5049091F604A091F70474
:10575000B091F8040196A11DB11D8093F5049093BA
:10576000F604A093F704B093F804BF91AF919F9112
:105770008F911F901FBE1F9018951F921FB61F92EA
:1057800011248F939F93AF93BF938091F404811161
:1057900013C08091F5049091F604A091F704B091A4
:1057A000F8044196A11DB11D8093F5049093F60471
:1057B000A093F704B093F804BF91AF919F918F919C
:1057C0001F901FBE1F901895CDB7DEB7EC970FB690
:1057D000F894DEBF0FBECDBF85B7806885BF85B7A3
:1057E000806885BF84B7877F84BF0FB6F894A8957B
:1057F00080916000886180936000109260000FBE0D
:1058000080E890E00FB6F894809361009093610077
:105810000FBE82EA96E09093A5018093A4010E94B6
:105820007D060E94460D0E94BA0C0E94BA0A0E9490
:1058300033030E94FE038091E20084608093E200C3
:105840007894809109058823A1F01091E9001F70D8
:105850009091EC00892F817090FD80E8182B1092B8
:10586000E9008091E80083FD0E94F3111F701093FE
:10587000E90082E084BD93E095BD9AEF97BD8093E7
:105880006E0010924402109245021092460210924D
:1058900047020E94B60B811102C00E947B150E9434
:1058A0003719811102C00E9443198EE090E00E94D6
:1058B0006F3591E0811101C090E0909329010E9421
:1058C000860A81110E946B33809129018091290100
:1058D00094E0811190E09093510284E0891B8093C1
:1058E000500284E90E94A40686E60E94A40687E985
:1058F0000E94A40686EC0E94A4060CE711E0D801E1
:105900008D918D018F3F11F00E94A406B1E0013806
:105910001B07A9F788E0EAE7F2E0DF01282F1D92D4
:105920002A95E9F7E8E4F2E0DF011D928A95E9F7AC
:105930000E943719811102C00E94431982E090E051
:105940000E946F35809356020E94CF0B9093E40320
:105950008093E3030E94140FEFE3FCE93197F1F722
:1059600000C000000E94140F80917A0280FF08C0DE
:105970006FEF7FEF90E080E00E949B350E94250A48
:1059800083E090E00E946F350E94E211809129012E
:1059900092E0811190E09093710282E0F82FF91B60
:1059A000F093530290912901809372029091290102
:1059B0008093520241E951E0A3E9B1E021E030E0F7
:1059C0008D91E82FE295EF70F0E011A18F70B90191
:1059D00001C0660F8A95EAF7962F9095912391A3BF
:1059E00082A1862B82A3FA018191AF01E82FE29573
:1059F000EF70F0E011A18F70B90101C0660F8A95B8
:105A0000EAF7962F9095912391A382A1862B82A3EA
:105A1000F1E0A539BF07A1F68FE891E00197F1F712
:105A200000C000001091720263E772E0F1E9EF2E0E
:105A3000F1E0FF2E43E951E0FB018E2F861B811719
:105A400008F468C00E94860A811102C00E946E3369
:105A50008AE291E09093F1048093F00468E1662E6D
:105A6000712C72E8C72E72E0D72EE4E0AE2EB12C76
:105A70008091090500E112E1853009F4A8C00E9477
:105A8000140F07E512E05AE7E52E52E0F52ED70194
:105A9000F80191918D9122E0EF35F20709F4A1C050
:105AA0009817B9F30E94860A282E912CD7018D9061
:105AB0007D01F80131908F01381429F13824512CDF
:105AC00044244394832D8421B1F02220A1F058AEC8
:105AD00099AE91E0882D842109F490E09AAF0E945C
