:100000000C94A8020C94E0020C94E0020C94E00220
:100010000C94E0020C94E0020C94E0020C94E002D8
:100020000C94E0020C94E0020C94C9290C948529EC
:100030000C94C62A0C94E0020C94E0020C94E002AA
:100040000C94E0020C94E0020C94E0020C94E002A8
:100050000C94E0020C94A22A0C94E0020C94E002AE
:100060000C94E0020C94E0020C94E0020C94E00288
:100070000C94E0020C94E0020C94E0020C94E00278
:100080000C94E0020C94E0020C94E0020C94E00268
:100090000C94E0020C94E0020C94E0020C94E00258
:1000A0000C94E0020C94E0020C94E00205010902B9
:1000B000A10185020901A100050919012905150001
:1000C00025019505750181029501750381010501E1
:1000D000093009311581257F950275088106093897
:1000E0001581257F950175088106050C0A380215D2
:1000F00081257F950175088106C0C005010980A191
:1001000001850319012AB700150126B7009501756D
:10011000108100C0050C0901A101850419012AA064
:1001200002150126A002950175108100C00660FF2E
:100130000961A1010962150026FF0095207508815B
:10014000020963150026FF00952075089102C0057D
:10015000010906A101050719E029E7150025019508
:1001600008750181029501750881010507190029AB
:10017000FF150026FF009506750881000508190186
:100180002905950575019102950175039101C0FD41
:10019000377A585A000004E6D6B446020021011608
:1001A000000000742FE5A3E0016300D15D003D88ED
:1001B00089C65436C3174FE4DD634CDA76EC173446
:1001C00026107253283A688FD5181DB4C266CFF630
:1001D0005D6B582ED5FA62E5A87969723661E37ACB
:1001E0006270C4829B93E0F96ABBD3AAB431D9C6CA
:1001F000DAA33AA03032A54DB1EBDA7E4C32508210
:10020000D8A029973877E6D4E8F63C8BF3B671840A
:100210001D0C59057FCCF4CB70C811AAC54804F455
:100220004BCD7E1C93249E0CAC1C9DE373DFC7E872
:10023000CE8E7338E8A94A1D4A094E1617BEF7B983
:10024000F0B52F086D3F1BA621333B5312FDABF6D3
:100250004E506035D0EA454E46A90A1ADD96231461
:1002600028BA9E8DE2EA56155E09D9E17A191D6910
:100270005F9279F03894E1B2E79370818445CD00C4
:10028000000000001725D2FE585ED10001ED01E408
:1002900002000030F7760EB1C467FB0200000000D8
:1002A00004595A0100010001000100010001000190
:1002B0000001000100010001000100010000000137
:1002C0000001000100010001000100000001000127
:1002D0000001000100010001000000010001000117
:1002E00000000000000000000001000100B503153F
:1002F0000D480D000002000200B103150D480D006D
:100300000003000100B603150D480D0000040002B3
:10031000009B03150D480D3E0605000100B70315AF
:100320000D480D0000060002009D03150D480D004C
:100330000007000200B303150D480D00000800017E
:1003400000B803150D480D0000090002009F0315B9
:100350000D480D19060A000200A103150D480D19DC
:10036000060B000200A303150D480D19060C000230
:1003700000A503150D480D19060D000200A7031571
:100380000D480D19060E000200A903150D480D19A0
:10039000060F000200AB03150D480D1906100002F0
:1003A00000AD03150D480D190611000200AF03152D
:1003B0000D480D190612000200B903150D480D0075
:1003C0000013000200BB03150D480D0000140001CE
:1003D00000BD03150D480D00001500000000009F32
:1003E000058414000009025B00030100A0FA09045F
:1003F0000000010301010009211101000122400058
:100400000705810308000109040100020300000040
:1004100009211101000122220007058203200001A9
:100420000705030320000109040200010300000086
:100430000921110100012281000705840320000128
:100440001201000200000008EDFE000000010102A0
:1004500003011C037600690061006C003A0066002D
:100460003600340063003200620033006300000095
:10047000080364006D006D00000020034B00650060
:10048000790062006F006100720064002000440087
:100490007700650065006200730000000403090432
:1004A000000000000000000000000000000000004C
:1004B000000000000000000000000000000000003C
:1004C000000000007E0F00D4FFFFFFC7000000788F
:1004D00000000000000000002A2B2800000000009F
:1004E00000000000000000000000002900000000E3
:1004F0002C1E3420212224342627252E362D373851
:10050000271E1F202122232425263333362E373859
:100510001F0405060708090A0B0C0D0E0F10111217
:10052000131415161718191A1B1C1D2F3130232DE3
:10053000350405060708090A0B0C0D0E0F101112E1
:10054000131415161718191A1B1C1D2F3130354C92
:1005500011241FBECFEFDAE0DEBFCDBF04B603FE2D
:1005600018C08091AA049091AB04A091AC04B09102
:10057000AD048730904BA740B04B59F41092AA04B9
:100580001092AB041092AC041092AD04E0E0F8E3DA
:10059000099511E0A0E0B1E0EEE0F6E602C00590BA
:1005A0000D92A037B107D9F724E0A0E7B1E001C070
:1005B0001D92AA3AB207E1F70E94ED2A0C94DA32B2
:1005C0000C940000E8EDF0E080818E7F8083109233
:1005D000E2001092DA001092E100A0EEB0E08C91FF
:1005E00081608C9380818F77808319BCA7EDB0E008
:1005F0008C918E7F8C9380818F7E8083109291046A
:1006000008952091E4003091E50095E6A90120913C
:10061000EC00822F817020FF06C08091E80080FFEF
:1006200006C080E008952091E80022FD1AC0809164
:100630009E04882389F0853089F08091EB0085FD48
:100640000FC02091E4003091E50042175307F9F202
:100650009150E1F684E0089582E0089583E00895E2
:1006600081E00895EF92FF920F931F93CF937C0147
:100670008B010E940103C82F811117C08091E800EF
:1006800085FD0BC08091E8008E778093E8000E9482
:100690000103882399F3C82F08C0F70181917F01D6
:1006A0008093F1000150110949F78C2FCF911F91D0
:1006B0000F91FF90EF9008958091A00487FF13C0E1
:1006C0008091E80082FF06C08091E8008B778093DC
:1006D000E80004C080919E048111F2CF08958091BA
:1006E0009E048823D9F38091E80080FFF8CF8091A1
:1006F000E8008E77ECCF982F9093E900242F762F87
:1007000050E0891731F07091EC002091ED0050918C
:10071000F00021FD07C09F5F973071F78093E900DB
:1007200081E008953091EB003E7F3093EB003091F3
:10073000ED003D7F3093ED003091EB003160309360
:10074000EB007093EC002093ED005093F0002091AB
:10075000EE0027FDE0CF80E00895B0E0A0E0E3EBFD
:10076000F3E00C942D32C8EDD0E088818F7E888331
:10077000E7EDF0E080818160808384E082BF81E0EA
:100780008093910488818E7F888302EE10E0F801C7
:1007900010821092DA0081EEC82ED12CF601108260
:1007A00088818F77888388818068888388818F7D1E
:1007B000888319BC10929E0410929F0410929D048D
:1007C00010929C0490EEE92EF12CF70180818B7F32
:1007D000808388818160888342E060E080E00E94BD
:1007E0007B03F60180818E7F8083F80180818160A8
:1007F0008083808188608083F70180818E7F808301
:10080000888180618883CDB7DEB7E8E00C944932F7
:10081000FC018091A6049091A70486179707A0F089
:100820006115710529F49091E8009E779093E80096
:1008300090E06115710551F4911108C08091E800B4
:1008400082FF34C080E00895BC01F2CF80919E0405
:100850008823C1F18530C1F18091E80083FD30C06B
:100860008091E80082FDEACF8091E80080FFE1CF2F
:100870008091F3002091F200382F6115710519F075
:100880002830310558F091E02830310509F090E02A
:100890002091E8002E772093E800CBCF81918093C0
:1008A000F100615071092F5F3F4FE7CF80919E04A7
:1008B000882341F0853041F08091E80083FFBECF6E
:1008C00081E0089582E0089583E00895089580917D
:1008D000930408959C014FB7F89480918A049091F5
:1008E0008B04A0918C04B0918D044FBF821B930B9D
:1008F00008952FB7F89460918A0470918B048091C9
:100900008C0490918D042FBF08952FB7F894809197
:100910008A0490918B04A0918C04B0918D042FBF18
:1009200008959C01FC0132969FEF80E041914617AB
:1009300051F09F3F19F4411101C0982F8F5F86300D
:10094000A9F79F3F09F40895290F311D97FD3A95A6
:10095000F901628308952091870430918804281753
:10096000390771F09093880480938704E09185049F
:10097000F0918604309721F00084F185E02D0995EF
:10098000089520918304309184042817390771F069
:100990009093840480938304E0918504F09186040D
:1009A000309721F00680F781E02D09950895E091B8
:1009B0008504F0918604309729F00190F081E02DB4
:1009C0000995089580E00895CF93DF93EC0140915D
:1009D00073045091740460917504709176042FB77C
:1009E000F89480918A0490918B04A0918C04B0912A
:1009F0008D042FBF841B950BA60BB70B843F914032
:100A0000A105B10518F58091730490917404A0912B
:100A10007504B091760480936F0490937004A09352
:100A20007104B093720484EF91E0A0E0B0E0809391
:100A30006B0490936C04A0936D04B0936E04D093F8
:100A40007B04C0937A04DF91CF9108950E947904CA
:100A500060936F0470937004809371049093720498
:100A600082E390E0A0E0B0E0E2CFFC018481862345
:100A700051F492819923B9F06923808583FF05C0E1
:100A800081E061110FC080E00895892F8F709295E9
:100A90009F70982B862F8F7062956F70682B81E006
:100AA0009613F1CF089581E0FDCF452B39F06823EF
:100AB00081E06F3F09F080E08170089581E0FCCF14
:100AC000DC016091670480916804962F891301C04E
:100AD0000895292F30E0F901EE0FFF1FE15AFB4F77
:100AE000408151814A175B07A1F487E08A9FA001EA
:100AF0008B9F500D1124495D5B4F81E0FA01848387
:100B00009613E6CF2F5F3F4F237033272093670460
:100B100008952F5F3F4F922F9370D8CF1092C40348
:100B20001092C303E7E2F4E08581811102C01482D0
:100B30001682379684E0EF35F807B1F70895B0E0F4
:100B4000A0E0E5EAF5E00C942B328FEF9FEF443004
:100B5000510508F469C04091780341FB882780F96A
:100B600090E0880F991F42FB002700F910E0000F6A
:100B7000111F000F111F802B912B40FBCC24C0F8BC
:100B8000D12C8C299D2943FB222720F9C22FE0E09C
:100B9000DE2F53E0CC0FDD1F5A95E1F78C2B9D2BF8
:100BA00044FBAA27A0F9B0E0E4E0AA0FBB1FEA9536
:100BB000E1F78A2B9B2B45FBEE27E0F9F0E0A5E05F
:100BC000EE0FFF1FAA95E1F78E2B9F2B46FB2227E6
:100BD00020F930E0B6E0220F331FBA95E1F7822BFF
:100BE000932B47FB222720F930E03695322F22271E
:100BF00037952795822B932B20917903322F3170D3
:100C0000F32EE82EF92A26952170B22EBB0CA82EC1
:100C1000BF28C501BB0CAA0BBB0BFB0180839183D2
:100C2000A283B38390E080E0CDB7DEB7EAE00C9416
:100C30004732EBE9F3E0848195812AE030E0B901A5
:100C40000E94EE31609316018681809315018285A2
:100C50008093140184858093130186859785B9015B
:100C60000E94EE3160931201808980931101828984
:100C700080931001848980930F01089580919B03D4
:100C800090919C0390931801809317010895E9E2D5
:100C9000F2E090E080E06AEE78E241E159E22FE58F
:100CA00038E2778366835187408733872287958729
:100CB000848701963E968830910599F708958115AD
:100CC0002CE5920741F420910D0130910E01232B68
:100CD00011F490E080E008950E9485049C019091B9
:100CE000130280911402982B21F03093100220936C
:100CF0000F029091150280911602982B21F03093EB
:100D00000E0220930D02E0918504F0918604309745
:100D100049F082E0809311020480F581E02D81E1A9
:100D200092E00995089590911302803F59F48091C3
:100D3000140287FF0DC01092140291110BC0109283
:100D40000B0208C0813F81F48091140218169CF3B5
:100D5000992381F08091150290911602892B09F058
:100D600064C010920A020895823F49F497FFF0CFC1
:100D700010921302809114028111ECCFE0CF833FD7
:100D800019F41916ACF3E4CF20911502893F29F428
:100D90001216F4F610921502DBCF8A3F19F427FFE2
:100DA000D7CFF8CF209116028B3F29F427FFD0CF61
:100DB00010921602CDCF8C3F19F41216CCF3C8CF87
:100DC000843F31F4809112028E7F80931202C0CF53
:100DD000853F21F4809112028D7FF7CF863F21F469
:100DE000809112028B7FF1CF873F21F48091120214
:100DF000877FEBCF883F21F4809112028F7EE5CF71
:100E00008D3F31F480910C028E7F80930C02A0CF35
:100E10008E3F21F480910C028D7FF7CF8F3F09F038
:100E200097CF80910C028B7FF0CF089580910C02B8
:100E300080FF0CC06091100170E075956795759505
:100E400067956115710549F1862F089581FF06C0E8
:100E50006091100170E075956795F3CF6091100176
:100E600082FD0BC090910A029923A1F060910F01BD
:100E700080911001961738F0682F70E06038710586
:100E800000F38FE70895899FC001112470E00E944C
:100E90000232F4CF61E070E0D7CF81E00895809115
:100EA0000C026091A3037091A40380FF16C02091EF
:100EB0001401269FC001279F900D1124BC01769537
:100EC0006795769567956038710508F043C06115A0
:100ED000710509F441C0862F089581FF0BC0209150
:100EE0001401269FC001279F900D1124BC01769507
:100EF0006795E9CF82FF09C0809114019B01829F11
:100F0000B001839F700D1124DECF20910B022223AC
:100F1000D1F29091130180911401482F50E02917CC
:100F200048F0CB01849FB001859F700D949F700D98
:100F30001124C9CF289F90011124269FA001279F2B
:100F4000500D369F500D1124692F70E0CA010E9488
:100F5000EE31B9CF8FE7089581E00895803F31F4F5
:100F60000E944F078195809314020895813F19F4E0
:100F70000E944F07F8CF823F31F40E944F078195BE
:100F8000809313020895833F19F40E944F07F8CF0E
:100F9000893F29F40E9416078093150208958A3F1D
:100FA00021F40E9416078195F7CF8B3F31F40E9400
:100FB000160781958093160208958C3F19F40E94BC
:100FC0001607F8CF843F31F480911202816080933C
:100FD00012020895853F21F4809112028260F7CFBA
:100FE000863F21F4809112028460F1CF873F21F483
:100FF000809112028860EBCF883F21F48091120229
:101000008061E5CF8D3F31F480910C028160809347
:101010000C0208958E3F21F480910C028260F7CF7C
:101020008F3FB9F780910C028460F1CF80E0089582
:10103000F894E82FE295EF70F0E031A1282F2F709F
:1010400081E090E001C0880F2A95EAF7982F9095EB
:10105000932391A392A1892B82A3789408959091D0
:10106000780392FF06C0282F28712830F9F4877F73
:10107000846093FF06C0282F28712831F1F4877E01
:1010800084612091790320FF06C0382F38713830F1
:10109000D9F4877F816021FF06C0282F287128316D
:1010A000D1F4877E816194FD877E0895282F247175
:1010B0002430F9F68B7F8860DCCF282F247124310F
:1010C00001F78B7E8861DDCF382F3171313019F710
:1010D0008E7F8860E0CF282F2171213121F78E7E0D
:1010E0008861E1CFCF93DF93EC0182389105B1F1B4
:1010F00008F040C08133910509F49DC048F589325C
:10110000910509F48DC08A9709F49CC0C11521E5A9
:10111000D20708F0C3C0C11530E5D30708F01EC1DF
:10112000C83ED10508F0A3C0C13ED10588F5C83A34
:10113000D10508F08EC0C53AD10508F007C1C1300D
:10114000D10531F1209721F1C430D10508F545C012
:101150008533910509F45FC0C997C1F68091780382
:10116000837009F044C18091790383FF11C0C9E203
:10117000D0E00EC0833E910599F170F4803E910558
:1011800001F1823E910511F68091780382FD21C024
:10119000CE01DF91CF910895863E910561F1873EA2
:1011A000910571F1843E910509F0B0CF80917903EA
:1011B00081FFEECF80917803C7EED0E084FD0DC0B3
:1011C000E7CF8091780380FD33C09091790390FF41
:1011D000DFCFC3EED0E084FFDBCFD0E0C0E0D8CFDC
:1011E0008091780382FD00C19091790390FDFFC04A
:1011F00084FFCECFF2CF8091780383FDDDCFC8CFBF
:101200008091780383FDF6C09091790391FFF0CF30
:10121000C4EED0E0BDCF8091780385FFB9CFA7CFD2
:101220008091780385FDE9C08091790383FFB0CF79
:10123000C9E3D0E0ADCF8091780386FFA9CFCAE2A1
:10124000D0E0A6CF8091780386FFA2CFC1E3D0E0A3
:101250009FCFCF3BD10508F6C85AD0E0CC0FDD1F99
:10126000C95DDE4F0990D881C02DD46491CFC115DE
:1012700040E2D40758F4C11581E0D80708F088CFC0
:10128000C03FD10508F4A9CFD06582CFC11520E4B5
:10129000D20708F4A2CFDF70D06A7ACFC11535E546
:1012A000D30718F5C11544E5D40708F085C0C1156A
:1012B00083E5D80708F06CC0C11522E5D20708F411
:1012C00062C0CE018370992721E030E002C0220F76
:1012D000331F8A95E2F7C695C69580E2C89FE00164
:1012E0001124C22BD32BDC6853CFC11539E5D307AA
:1012F000A8F4C11548E5D40708F063C0C11586E518
:10130000D80708F06ACF8C2F0E942F08C82FD0E092
:10131000DC2FCC27CC27DF71D0623ACFC1152AE56C
:10132000D20708F453C0CE0190568115904208F0C0
:1013300054CF8D2F8F710E942F0890E0982F88270F
:1013400088279F719C012C2BE901E6CFC55AD0E07C
:10135000CC5DDE4FC881D0E0D0641ACF2C2F26950B
:101360002695237040E2249F900111248C2F8370D6
:10137000C1E0D0E002C0CC0FDD1F8A95E2F7C22B9E
:10138000D32BDD6805CFDC2FCC27C16FD06A00CF0F
:10139000CE018370992721E030E002C0220F331F75
:1013A0008A95E2F7C695C69540E2C49FE0011124F4
:1013B000C22BD32BDA68ECCEDC2FCC27C46FD06ADB
:1013C000E7CEDC2FCC27C06FD06AE2CE8C2F8F7097
:1013D0000E942F0834E0D695C7953A95E1F7CF7073
:1013E0009C2FEC01D069D4CEC2EED0E0D1CEC0EEBD
:1013F000D0E0CECEC6EED0E0CBCEC5E3D0E0C8CEB6
:101400008091E601882331F01092E6011092E50107
:101410001092E4010895CF93C82F8091790382FF41
:101420000CC08091E6018C1741F00E9485049093D6
:10143000E5018093E401C093E601CF910895809582
:101440009091A90498239093A90408958095909170
:101450007A03982390937A03089590917A03892BC5
:1014600080937A0308951092DB011092DA011092B2
:10147000D901089580919D0390919E03892B89F055
:101480000E9485042091E4013091E501AC01421BEA
:10149000530B81E020919D0330919E034217530727
:1014A00008F480E081700895E4E7F1E091918913F8
:1014B00003C0DF0111971C9291E0EA37F907B1F7F9
:1014C00008952091D80190919701291302C080E0DE
:1014D000089530E0F90153E0EE0FFF1F5A95E1F750
:1014E000E856FE4F5181561306C05081581303C071
:1014F0005281541304C02F5F3F4F2770E6CF81E025
:1015000008958091D80190919701981301C0089592
:101510008F5F8770FACF292F953078F5873068F57F
:1015200090E037E0239F800D911D1124682F677094
:1015300023E0969587952A95E1F7FC01EE0FFF1FB2
:10154000E80FF91FE058FE4F50E040E080E02191A5
:1015500030E0062E02C0369527950A94E2F72170F6
:101560003327042E01C0220F0A94EAF7822B4F5F23
:101570005F4F4330510559F7089580E00895292FB2
:10158000953098F5873088F590E037E0239F800DFF
:10159000911D1124282F277041E001C0440F2A9586
:1015A000EAF723E0969587952A95E1F7FC01EE0F7F
:1015B000FF1FE80FF91FE058FE4F30E020E070E019
:1015C0005191DF011197CB01022E02C096958795AC
:1015D0000A94E2F7817081958527842385278C936F
:1015E0002F5F3F4F2330310559F7089592959F7033
:1015F000963091F058F4925F9F70923058F4803F8B
:1016000019F030F4883E30F481E008959A5FF4CF09
:10161000843FD1F380E00895883EB0F3813FD1F755
:10162000F3CF9C013A9521153F4150F5FC01EE277F
:10163000F170BC0166277270AC01442754709C01A4
:101640002227387094FF0EC080E1EF2B09F480E070
:10165000672B09F08062452B09F08064232B89F009
:101660008068089581E0EF2B09F480E0672B09F092
:101670008260452B09F08460232B19F0886008955F
:1016800080E0089580938E047093900460938F049B
:1016900080919E048430F9F48093E9008FEF90915B
:1016A000E800815095FD06C095ED9A95F1F7000090
:1016B0008111F5CF8091E80085FF0DC050E040E03A
:1016C00063E070E08EE894E00E9432038091E800CD
:1016D0008E778093E8000895BC0184E00E94420B5D
:1016E0000895BC0183E00E94420B08959C0184E0B0
:1016F0008093E9009FEF8091E800915085FD06C03E
:1017000085ED8A95F1F700009111F5CF8091E80001
:1017100085FF0CC050E040E066E070E0C9010E9427
:1017200032038091E8008E778093E8000895CF938C
:10173000DF93EC0181E08093E9008FEF9091E80066
:10174000815095FD06C095ED9A95F1F70000811145
:10175000F5CF8091E80085FF14C050E040E068E0DC
:1017600070E0CE010E9432038091E8008E77809372
:10177000E80088E0FE01A4E9B4E001900D928A95AA
:10178000E1F7DF91CF91089581E08093E00080E25E
:101790008093D8001092C9008FE19EE40197F1F781
:1017A00000C0000087E090EBDC018093AA049093D6
:1017B000AB04A093AC04B093AD0488E19CE00FB6F9
:1017C000F894A895809360000FBE90936000FFCFBF
:1017D000019708F40895EFE9FFE03197F1F700C0B1
:1017E0000000F6CF0F931F93CF93DF930BE913E025
:1017F000CBECD1E0CE010E949032F80181938F01B1
:101800002196CF3EF1E0DF07A9F7C3EFD2E0FE015A
:1018100085919491009711F0FC0109952C96F3E0C5
:10182000CF3EDF07A1F7DF91CF911F910F91089570
:101830000F931F93CF93DF93863030F5653020F5FB
:10184000473010F5C42FD0E0CC0FDD1F2EE0629F93
:10185000C00DD11D112436E4839FC00DD11D11246C
:10186000CE0187960E949032082F10E0102F00279B
:10187000CE0188960E9490329801282BC901DF91F1
:10188000CF911F910F91089590E080E0F8CF462FFF
:101890002091760330917703232B99F4703F39F42C
:1018A000603F79F4809174039091750308958630B8
:1018B00040F4753030F4673020F4672F0E94180C24
:1018C000089590E080E00895CF92DF92FF920F9309
:1018D0001F93CF93DF936C010091A8048091E701DF
:1018E000082BC7E0D0E010E0FC2EC8010C2E02C08F
:1018F000959587950A94E2F780FD0CC02197A0F793
:10190000F12C8F2DDF91CF911F910F91FF90DF90E0
:10191000CF900895B6018C2F0E94470C0E94720848
:10192000019761F3EECFCF93DF93EC010E94640C3B
:10193000BE010E94470C0E947208DF91CF9108956A
:10194000CF93DF93EC014B815C81698188810E9498
:101950005505811110C08E819F81009739F00E943A
:1019600072080E94F60ADF91CF91089588819981CB
:101970000E94930CF6CF80E0F6CFA5E0B0E0E3EC58
:10198000FCE00C94323249835A8389819A81662320
:1019900099F0222389F00E94640C182F682F898106
:1019A0009A810E94BF0A69817A81812F0E94470C27
:1019B0002596E3E00C944E320E948B0A182FF3CF49
:1019C000FC01262F86819781009739F4408151814F
:1019D0006281738184810E94BD0C089583E290E04E
:1019E0000E949032873489F484E290E00E94903221
:1019F0008E3359F485E290E00E94903291E0853375
:101A000009F090E0892F8170089580E0FCCFCF939A
:101A100084E090E00E949032C82F82E290E00E9421
:101A20009032982F8C2FCF910895DB01FC013296D4
:101A3000259134914217530758F0FC013496659173
:101A40007491A901CD010E94703290E080E0089568
:101A50008FEF9FEF08950F931F93CF93DF930BE9C1
:101A600013E0CBECD1E0CE010E949032F8016191FD
:101A70008F01681719F0CE010E949E322196CF3E49
:101A8000F1E0DF0781F7DF91CF911F910F9108956A
:101A9000DA019C012E5F3F4FF90145915491F90104
:101AA00025913491A217B30758F0FC013496859123
:101AB00094910E9470320E942B0D90E080E0089576
:101AC0008FEF9FEF0895CF93DF93CFEDD2E060E0EB
:101AD000CE010E949E322196C11584E0D807B9F745
:101AE000DF91CF9108951F93CF93DF93122F86300C
:101AF000E0F46530D0F44730C0F4C42FD0E0CC0F10
:101B0000DD1F9EE0699FC00DD11D112496E4899FC1
:101B1000C00DD11D1124632FCE0187960E949E32E5
:101B2000612FCE0188960E949E32DF91CF911F9146
:101B30000895CF93C82F6FEF811167E483E290E09F
:101B40000E949E326FEFC1116EE384E290E00E942A
:101B50009E326FEFC11165E385E290E00E949E32F4
:101B6000CF910895CF93C92F682F84E090E00E9411
:101B70009E326C2F82E290E00E949E32CF910895B7
:101B80009B01883070F49AE0899FB0011124615163
:101B90007E4F4AE050E0C9010E94803290E080E030
:101BA00008958FEF9FEF0895AAE0B0E0EAEDFDE021
:101BB0000C9433329C0137552F3F310509F068F4FE
:101BC000BE016F5F7F4F0E94C00D892B31F4898564
:101BD0009A852A96E2E00C944F328091B30390915B
:101BE000B403F7CFAAE0B0E0E8EFFDE00C942932AF
:101BF0000CEF12E08AEEC82E82E0D82E9FE8E92E84
:101C000092E0F92E27E0922E39EEA32E32E0B32E89
:101C100088248394D6010D931D936D014AE050E012
:101C2000B701CE0101960E948032F8013896DF019B
:101C3000892D1D928A95E9F789819A81D80111969B
:101C40009C938E938F8112968C9312978D8113960D
:101C50008C931397888514968C9314978985159681
:101C60008C9315978B819C8117969C938E931697D6
:101C700018961C9218978A8587FF3CC01E961C9266
:101C80001E921D9780FF03C0D80118968C9281FF89
:101C900004C0F80190859260908782FF07C0D80148
:101CA00018969C911897946018969C9383FF04C093
:101CB000F80190859860908784FF07C0D801189636
:101CC0009C911897906118969C9385FF04C0F80129
:101CD000808580628087015F1F4FFAE0EF0EF11C64
:101CE0008FEDE81682E0F80609F094CF2A96ECE032
:101CF0000C944532F801B686A586C4CFAAE0B0E0C0
:101D0000E4E8FEE00C942D32E9E9F2E080E5DF0141
:101D10001D928A95E9F7E7E2F4E088E3DF011D927E
:101D20008A95E9F789E9C82E82E0D82E7F010FE372
:101D300012E0F701D182C0824AE050E0B801CE0142
:101D400001960E94803288E0FE013196D601019012
:101D50000D928A95E1F789859A85D70113969C9310
:101D60008E931297BAE0CB0ED11CE7E0EE0EF11C79
:101D7000065F1F4F0F38F2E01F07D9F62A96E8E0FA
:101D80000C944932A5E0B0E0E8ECFEE00C942A3275
:101D90008E010F5F1F4F85E0F80111928A95E9F7D8
:101DA00085E5C82E81E0D82EF12CE12CAA24A3943D
:101DB000B12CF60181916F018F3F09F443C0F89473
:101DC000E82FE295EF70F0E021A18F70A50102C02D
:101DD000440F551F8A95E2F7CA01922F982B91A3C1
:101DE00092A18095892382A3789400C0EAE5F1E06E
:101DF000912C31E021912F3F09F465C0A22FA295CB
:101E0000AF70B0E090968C9190E02F7002C09595E5
:101E100087952A95E2F780FD56C0832F982A330FC5
:101E200051E0E136F50731F7F601319780818F3FB8
:101E300011F00E94180880EA8A95F1F7F801EE0D7A
:101E4000FF1D9082EFEFEE1AFE0AF5E0EF16F104A7
:101E500009F0AFCF45E050E0B8018BEE91E00E9471
:101E60006332892B91F185E0F801ABEEB1E001908E
:101E70000D928A95E1F781E08093EA010E94850442
:101E80009093E9018093E8018091E8019091E90144
:101E90000E946A040597E8F045E050E06BEE71E0BF
:101EA00085E092E00E946332892BC1F085E0EBEE81
:101EB000F1E0A5E0B2E001900D928A95E1F781E0B2
:101EC0001092EA0107C080E0A9CF8091EA01811158
:101ED000DBCF80E02596EBE00C94463280E0F0CF3B
:101EE00080917A039091A904892B8093720180914B
:101EF000E601882309F180919D0390919E03892B2F
:101F000029F00E943A0A81110E94000A8091720110
:101F10009091E601892B8093720120E084E791E0A3
:101F2000FC013191CF0131112F5FF1E08A379F071A
:101F3000B9F721110E94000A809177048095909151
:101F40007201892390917804892B8093720148E073
:101F500050E06CED71E082E791E00E946332892BE2
:101F6000A9F088E0E2E7F1E0ACEDB1E001900D927C
:101F70008A95E1F7E0918504F0918604309731F07D
:101F80000280F381E02D82E791E009950895CF93D7
:101F9000DF93EC01EA85FB85309719F06C857D8530
:101FA00009958B810E941F0A8C810E94260A0E943B
:101FB000700F86E0FE0111928A95E9F7DF91CF91CB
:101FC0000895CF93DF93EC018D8181FD15C0826070
:101FD0008D838091A9049B81892B8093A9048C8196
:101FE0000E942D0A0E94700FE885F985309721F034
:101FF0006C857D85CE010995109282041092810432
:102000008D8180FD03C0CE010E94C70FDF91CF916B
:10201000089580911901877F8093190182E00E94C1
:102020001F0A8091190184FF06C08F7E80931901D9
:1020300082E00E942D0A8091190185FF06C08F7DE4
:102040008093190180E20E942D0A0E94700F08956A
:1020500090E080E00E94C10490E080E00E94AB0428
:102060001092A9040E94700F86E0E1E1F2E0DF0126
:102070001D928A95E9F710920B0210920A021092B3
:102080000C020E946C0608958093A8040E942810F8
:1020900008958091A804982F9670963021F4886056
:1020A0000E9444100895877FFBCF21E030E001C0FB
:1020B000220F8A95EAF720958091A80482230E9436
:1020C000441008959091DB01809589238093DB0172
:1020D000282F277091F4282F082E000C330B92170D
:1020E000130659F09091790392FF07C08595859565
:1020F00085950E9455100E94330A089590917903A6
:1021000092FB222720F9281769F080FB92F990931F
:10211000790380917803909179030E94B20D82E057
:102120000E946210089521E030E001C0220F8A95DC
:10213000EAF78091A804822B0E94441008959091A0
:10214000790392FF10C098E0899F90011124622BBF
:102150006093DB010E9493100E9485049093DA0142
:102160008093D90108950E94931008958093E70108
:102170000E942810089510927A03E4E7F1E086E0C7
:10218000DF011D928A95E9F70E9428100895AAE2BE
:10219000B0E0EDECF0E10C94323280EA94E0209172
:1021A000F100DC012D93CD01B4E0883A9B07B9F72B
:1021B0008091A104833009F472C0B8F4813009F42D
:1021C00049C0823009F4B3C08091E80083FF96C211
:1021D0008091A0049091A1049A3008F08FC2E92F59
:1021E000F0E0E452FD4C0C9416328A3009F48EC0B3
:1021F0008B3009F471C0893039F78091A0048132A5
:1022000019F78091A4049091A504009711F002970A
:10221000D9F68091E800877F8093E8008091E800FC
:1022200082FF38C09091F3008091F200029731F460
:102230008091F100813011F0863021F48091F1001D
:10224000809393048091E8008B778093E8000E944C
:102250005C03BACF8091A004813A09F0B5CF809198
:10226000E800877F8093E8008091A4049091A50402
:10227000892B61F468E084E994E070E00E9408042E
:102280008091E8008B778093E8009ECF60E090E03B
:1022900080E0F3CF80919E048111C0CF95CF8091D3
:1022A000A004813A09F090CF8091A4049091A504F4
:1022B000892B09F089CF8091E800877F8093E8001F
:1022C0008091E80080FFFCCF80911B018093F1009A
:1022D0008091E8008E77B9CF8091A004813209F017
:1022E00073CF8091A4049091A504892B09F06CCF41
:1022F0008091E800877F8093E8000E945C038091D2
:10230000A20480931B010E94BB105ECF8091A004A9
:10231000813209F059CF8091E800877F8093E800EF
:102320000E945C038091A304809392044DCF80911E
:10233000A004813A09F048CF8091E800877F80931C
:10234000E8008091E80080FFFCCF80919204BECF2E
:10235000803899F0823809F0D1C18091A4048F703F
:10236000873008F0CBC18093E9008091EB0085FBBA
:10237000882780F91092E90006C080919C04909112
:102380009D04911182609091E800977F9093E800FE
:102390008093F1001092F1008091E8008E77AAC13D
:1023A000882309F498C1823009F0A8C18091A20461
:1023B00081119BC18091A4048F702FEF280F2630CC
:1023C00008F09CC18093E9002091EB0020FF8DC1B3
:1023D000933031F48091EB0080628093EB0085C1F3
:1023E0009091EB0090619093EB0021E030E001C010
:1023F000220F8A95EAF72093EA001092EA00809172
:10240000EB008860EACF811179C11091A2041F7797
:102410008091E3008078812B8093E3008091E80035
:10242000877F8093E8000E945C038091E80080FF32
:10243000FCCF8091E30080688093E30082E011117B
:1024400083E080939E045AC18058823008F056C1C0
:102450002091A2043091A3042C3DE3E03E07A1F5B6
:1024600083E08A838AE289834FB7F894DE0113966A
:1024700020E03EE051E2E32FF0E050935700E4917A
:1024800020FF03C0E295EF703F5FEF708E2F90E06A
:10249000EA30C0F0C7968D939D932F5F243159F792
:1024A0004FBF8091E800877F8093E8006AE270E088
:1024B000CE0101960E9408048091E8008B778093FA
:1024C000E8001CC1C096E7CF8091A4049091A504B8
:1024D000432F55274330510509F44AC078F5413060
:1024E000510509F485C08BE590E0E5EEF3E042305C
:1024F000510509F003C12091E800277F2093E800EF
:102500002091A6043091A7048217930708F49C0138
:1025100040E02115310509F070C041116EC0809175
:10252000E80082FDC9CF80919E04882329F285307E
:1025300019F28091E80083FFF2CFBECF41325105FE
:1025400009F447C04232510509F0D8C083309105E3
:1025500008F0D4C0FC01EE0FFF1FEC59FE4F0190B4
:10256000F081E02D8F599E4FDC018C9190E01DC0D1
:10257000332721303105E9F02115310579F022307A
:102580003105F9F02330310509F0B8C0E2E5F4E097
:10259000E4918E2F90E0E2E5F4E007C0ECE9F4E08E
:1025A000E4918E2F90E0ECE9F4E0009709F4A6C0E6
:1025B000A2CFEAE7F4E0E4918E2F90E0EAE7F4E0BE
:1025C000F4CFE0E7F4E0E4918E2F90E0E0E7F4E070
:1025D000ECCF8330910508F091C0880F991FFC0162
:1025E000E659FE4F0190F081E02D89E090E083CF25
:1025F00082E190E0E0E4F4E07ECF80919E048823C5
:1026000009F45ACF853009F457CF8091E80083FD53
:1026100053CF8091E80082FD82CF8091E80080FF57
:1026200078CF9091F3008091F2002115310519F0D7
:102630008830910550F041E0089709F040E0809122
:10264000E8008E778093E80064CF44914093F100D6
:102650003196215031090196E8CF803809F04EC0FB
:102660008091E800877F8093E80080919F048093A9
:10267000F10092CE811142C01091A2041230F0F507
:102680008091E800877F8093E80010939F040E9468
:102690005C03112311F084E005C08091E30087FD05
:1026A000FACF81E080939E0442E061EC81E00E94D9
:1026B0007B0342E261EC84E00E947B0342E261EC36
:1026C00082E00E947B0342E260EC83E00E947B0395
:1026D00080919E0413C08091A204813079F481E03E
:1026E000933009F080E080939D041092E90080917E
:1026F000E800877F8093E8000E945C038091E800F7
:1027000083FF0AC08091E800877F8093E800809172
:10271000EB0080628093EB00AA96E3E00C944E32CB
:10272000EBE9F3E0128E138E8FEA90E091838083C1
:1027300025E0248F88E893E1938382838AE090E008
:102740009583848344E150E05783468348E050E01A
:1027500051874087938782876EE170E07587648731
:102760009787868780E590E0918B808B538B428B97
:1027700048E250E0558B448B42E350E0578B468B48
:1027800048EC50E0518F408F158E178E168E91A316
:1027900080A322A30E942B0D0E94BB1010927903EC
:1027A00010927803E9E7F3E0808184608083809170
:1027B0007803909179030E94B20D0E94F20B089564
:1027C000AEE1B0E0E6EEF3E10C942932A0900D0109
:1027D000B0900E0181E090E090930E0180930D0186
:1027E000F12CE12C83EAC82E82E0D82E10E017C02D
:1027F000E114F104B9F4F40125913491402F612FD3
:1028000080E00E94730D82E0880E911C0F5F0730FC
:1028100079F71F5FEEE0CE0ED11C153049F046016E
:1028200000E0E6CF21E030E0402F612F8E2DE9CF90
:10283000FFEFEF1AFF0A86E0E816F10499F60E940E
:1028400090131A8219821C821B821E821D82188696
:102850001F8288EC90E09A8789870FEE11E04AE0AA
:1028600050E0B801CE0101960E94C232065F1F4FB0
:102870000F33E2E01E0799F77E01FBE0EF0EF11C3B
:102880008AE0F70111928A95E9F74AE050E0B80131
:10289000C7010E94C232065F1F4F0F38F2E01F07C8
:1028A000A1F77E0185E1E80EF11C8AE0F7011192A3
:1028B0008A95E9F78FEF9FEF9A8F898F87E08E8F48
:1028C0004AE050E0B801C7010E94C232065F1F4FC4
:1028D0000F3DF2E01F07A1F7B0920E01A0920D018B
:1028E0006E96ECE00C94453280E00E94990D60E019
:1028F00086E290E00E949E320E94E0130E94630DE7
:1029000081E00E94990D0895CF92DF92EF92FF929D
:102910008FEF9FEF4430510508F46AC0FB01C0807F
:10292000D180E280F3800E94BB1080917803C0FACE
:1029300080F9B701A601769567955795479540FBB5
:1029400081F9B701A60122E07695679557954795DD
:102950002A95D1F740FB82F9B701A60133E07695BD
:102960006795579547953A95D1F740FB83F9B7019D
:10297000A601E4E07695679557954795EA95D1F7D6
:1029800040FB84F9B701A601F5E076956795579568
:102990004795FA95D1F740FB85F9B701A601A6E066
:1029A0007695679557954795AA95D1F740FB86F997
:1029B000B701A601B7E07695679557954795BA9503
:1029C000D1F740FB87F98093780380917903D0FA9F
:1029D00080F9D1FACC24C0F8C0FA81F98093790348
:1029E00080917803909179030E94B20D90E080E08D
:1029F000FF90EF90DF90CF9008950E94BB102FEFD3
:102A000084E39CE0215080409040E1F700C000004A
:102A100088E19CE00FB6F894A895809360000FBE03
:102A200090936000FFCF882321F00E941F0A0E942C
:102A3000700F0895882339F09091A904982B9093F2
:102A4000A9040E94700F0895882321F00E94260A8D
:102A50000E94700F0895882321F00E942D0A0E9481
:102A6000700F0895882379F19CEF980F913A28F41C
:102A70000E94540A0E94700F089590E2980F9830B7
:102A800050F4877091E001C0990F8A95EAF7892F79
:102A90000E94260AEFCF9BE5980F933028F490E030
:102AA00080E00E94C104089598E5980F973128F4BA
:102AB00090E080E00E94AB040895803F20F00E94E7
:102AC00093060E946C060895FF920F931F93CF9375
:102AD000DF93F82E00917C0410917D0401151105FF
:102AE00009F449C010927B0410927A041092770482
:102AF00010927804D8011696CD91DC919E013A95FA
:102B000021153F4108F4D07ED1E0C11101C0D0E0D1
:102B1000D8011996ED91FC911A97309731F01B96D8
:102B20006D917C9180E00995D823DD2339F08CEFFD
:102B30008C0F813A30F58C2F0E94540AFF2099F0B7
:102B4000E0917C04F0917D04808584FD0CC080912F
:102B50007904882341F0808191819C0121503109C1
:102B6000203B3D45A0F00E94700F10927D04109212
:102B70007C0410927904C801CDB7DEB7E5E00C946F
:102B80004C320E94700F8C2F0E943215D7CF0E94BA
:102B9000E404E9CFCF93DF93EC010E943215CE011C
:102BA0000E94110B9E01205E31092830310510F082
:102BB000CD2B29F40E942415DF91CF9108950E9416
:102BC0001315FACFCF93C82F8823A1F08CEF8C0F69
:102BD000813A90F4E4E7F1E08191C817E1F181E0F6
:102BE000EA37F807C9F76C2F82E791E00E94910459
:102BF0000E94700FCF91089580E28C0F883048F4C6
:102C0000C77081E001C0880FCA95EAF70E942D0ABB
:102C1000EFCFEBE5EC0FE33040F4F0E0EC5DFE4F7E
:102C2000808190E00E94C104E5CFE8E5EC0FE73138
:102C300050F4F0E0EE0FFF1FE95DFE4F80819181BF
:102C40000E94AB04D7CFC03FA8F28C2F0E94AE07E2
:102C50000E946C06CFCF8C2F0E94540A0E94700FE6
:102C6000C2CF1F93CF93DF93182FC091BB03D09196
:102C7000BC03893321F0C091B903D091BA03812FED
:102C80000E94E215209739F4812F0E943215DF91BE
:102C9000CF911F9108958FE99FE00197F1F700C050
:102CA00000002197EFCFB0E0A0E0E9E5F6E10C9459
:102CB0002B32EC018AE0A82E2881222309F48FC050
:102CC0002130C9F599818A81913021F422960E94A0
:102CD000311605C0923029F422960E94E215219601
:102CE000EBCF933021F422960E943215F8CF943026
:102CF00011F02196F4CF229630E020E0AE014F5F34
:102D00005F4F8053990B8A30910550F02150310963
:102D100030F38FE99FE00197F1F700C00000F6CF94
:102D2000A29EB001A39E700D11249C01260F371F97
:102D30008981EA01E3CFE22FF0E0E053FB4FB4904A
:102D4000822F86958695869590E0FC01E054FB4F96
:102D5000E4902770F12C022E02C0F594E7940A94B7
:102D6000E2F731E0E322FF24FC01E055FB4FC49081
:102D7000D12C022E02C0D594C7940A94E2F731E018
:102D8000C322DD24FC01E056FB4F049110E002C099
:102D9000159507952A95E2F701701127E114F104C2
:102DA00019F081EE0E94E215C114D10419F086EEEB
:102DB0000E94E2158B2D0E943116C114D10419F026
:102DC00086EE0E943215E114F10419F081EE0E94A2
:102DD00032150115110509F482CF8CE278CFCDB7F9
:102DE000DEB7EAE00C944732B0E0A0E0EAEFF6E1AB
:102DF0000C942B327C015B01C42FD22FFC01828109
:102E00008823A9F0409380040E94850490937F0456
:102E100080937E04C77081E001C0880FCA95EAF7ED
:102E20000E942B15CDB7DEB7EAE00C944732109123
:102E30008004141338C080917E0490917F040E9416
:102E40006A046C01B701C5010E94D40DC816D906E9
:102E500050F5C0E2CD0F1D17C1F080E2810F883020
:102E600048F4177081E0012E01C0880F0A94EAF738
:102E70000E942415C83048F481E09D2F977001C04E
:102E8000880F9A95EAF70E942B15802F0E94311621
:102E9000C83040F6D77081E001C0880FDA95EAF7B4
:102EA0000E942415BFCFC77081E001C0880FCA956A
:102EB000EAF7F6CFCF93DF93EC010E94110B9E014E
:102EC000205E31092830310510F0209741F40E942E
:102ED0002B158C2F0E94E215DF91CF9108950E944F
:102EE0001A15F7CF662329F02091A90422602093B8
:102EF000A9049C013056211540E2340720F0305ED1
:102F00002115304108F499270E945A170895B0E01E
:102F1000A0E0EDE8F7E10C942E327C018B01D42E79
:102F20008091190182FF8CC0C091C103D091C2036E
:102F3000CE15DF0521F0E114F10409F081C0809184
:102F400019018B7F8093190181FD73C08091BF03AC
:102F50009091C003A801481B590B81E020911701F3
:102F6000309118014217530708F480E08170F82E61
:102F700080911901F0FA81F980931901FE0183E033
:102F8000F695E7958A95E1F7EE71FF27E558FC4F36
:102F900020813181AE014F70552781E090E002C061
:102FA000880F991F4A95E2F7FF2009F444C0822B4D
:102FB000932B9183808380917A0381FF08C0809155
:102FC000190180618093190182E00E94260A809194
:102FD0007A0385FF08C080911901806280931901EE
:102FE00080E20E94260A6F2DCE010E947217DD201A
:102FF00031F08091B60385FF02C086FF3BC080910F
:10300000B9039091BA030E94E80B8091C10390919B
:10301000C2039C013056211540E2340720F0305E97
:103020002115304108F499270E94CA150E94091001
:103030001DC081E09BCF8095909582239323B9CFCB
:10304000C701992797013056211540E2340728F02F
:10305000305E2115304108F0C7010E94CA158091E9
:10306000C1039091C2038E159F0501F31093C00315
:103070000093BF03CDB7DEB7E7E00C944A3268EEA9
:103080007EEF90E080E00E94BC3260E082E090E061
:103090000E949E3260E083E090E00E949E32109297
:1030A000E70160E084E090E00E949E3264E082E20A
:1030B00090E00E949E3260E085E090E00E949E32A7
:1030C00060E086E090E00E949E326FEF87E090E043
:1030D0000E949E3240E050E0BA0188E090E00E94F9
:1030E000B03260E08DE090E00E949E3240E050E01F
:1030F000BA0188E190E00E94B03260E087E190E0A0
:103100000E949E3240E050E0BA018CE190E00E94C3
:10311000B03270E060E080E290E00E94BC3240E0BB
:1031200050E0BA0188E190E00E94B03280E00E9455
:10313000990D0E94741440E050E0BA018FE090E0D5
:103140000E94B03240E050E0BA0183E190E00E947A
:10315000B0320895A7E0B0E0E0EBF8E10C94233240
:103160007C01DC0113964D915C91149711966C9142
:1031700011978C910E9455058111EEC061E0C70145
:103180000E94E00C8C01F70182818823E1F080919C
:103190008104909182040097B1F00817190799F003
:1031A000FEE08F9FC0011124FC01E25DFD4F2081F4
:1031B00024602083875D9D4FDC010D931C930E944A
:1031C000E10F1092A904F7018281882311F40C9475
:1031D0006A21C80182519F45409710F00C945E21EE
:1031E0008FEF93E00E9490328111A6C07EEED72E21
:1031F000D00E0FED12E0D11036C019821A821B8258
:103200001C8299249A9468012FEFC21AD20AC8012D
:103210000E94903289831A82882309F48DC08130FC
:1032200009F07FC0580132E0A30EB11CC6010E9414
:103230009032C82E8A83882309F47EC0C5010E947B
:103240009032D82E8FEF8C0D8330D8F4580143E0A4
:10325000A40EB11CDB82DD2021F0CE0101960E947C
:1032600053168501D0CF0115F4E01F0709F464C09F
:10327000C8010E949032811101C0DA940F5F1F4F84
:10328000BACF8BEF8C0D833030F5C8010396DB820B
:103290005C01DD2031F3580154E0A50EB11C0E9401
:1032A00090328C838823E9F28B819C818130AFEF4F
:1032B0009A0710F0982F8827B6E0CB1631F0E7E098
:1032C000CE1631F00E94D928CCCF0E94B328C9CFA6
:1032D0000E943A28C6CFF4E0CF12C3CF580124E0B1
:1032E000A20EB11CC80103960E949032DD2021F18C
:1032F000882311F18150990B989E9001999E300D71
:1033000011244D2D4150550BCA01820F931F019777
:1033100008F4A7CFAFE9BFE01197F1F700C00000B4
:10332000F6CFCE0101960E94531656019ACF81E046
:103330000E9493100E9449108091DB01877061F018
:10334000D70112968C91882339F08091790382FFFE
:1033500003C082E00E9462102796E2E10C943F32A3
:1033600081E00E945510E6CF82E0FBCF823011F061
:103370000C94A8218091230290912402892B09F4B6
:10338000E7C72EE02C9DC0012D9D900D1124FC015E
:10339000E25DFD4F20812E7F2083875D9D4F0E943F
:1033A000E10FD6C781E080930001C6CF8091000174
:1033B000882309F4AFC6480120EE821A9108409094
:1033C000E60180917D01482A80917A03482A38E0FD
:1033D0008316910408F086C098012770332781E096
:1033E00090E001C0880F2A95EAF7552009F477C0CC
:1033F000482AD7018D919C910E948B0A21E030E0F0
:10340000F90102C0EE0FFF1F8A95E2F7FF83EE83FA
:1034100020907C0430907D0460907A0170907B0154
:103420001D822D81E22FF0E0EE0FFF1FE651FD4FD0
:10343000C080D180C114D10409F4D0C6411005C0A8
:10344000D60112968C91811189C0F601838190E09A
:103450002E813F8182239323892B09F47FC08085AD
:10346000982F977009F487E038E08316910408F0EC
:1034700053C0552009F44CC086958170882309F407
:103480006DC0D601AD90BC900A151B0519F45520EE
:1034900009F464C0C214D30409F460C0D6011D96B7
:1034A000ED91FC91309721F08081882309F456C07A
:1034B000642DC6010E943505882309F44FC00A1502
:1034C0001B0509F099C70115110509F49AC7511098
:1034D0009AC7A614B70409F041C0512C94C780952F
:1034E000482287CF552009F462C610937B010093D0
:1034F0007A010E947904609373047093740480933A
:1035000075049093760410927B0410927A0471CF24
:1035100082FB882780F9B2CF552001F18170AECFB0
:103520000E9432158EC70497813A910558F46A2D8E
:1035300082E791E00E949104552009F4EBC50E94B6
:10354000700FFACE0E94700F8FE39CE90197F1F79C
:1035500000C000008A2D0E94E215EECF9D819F5F82
:103560009D835FCFFC01208131810217130709F091
:10357000CAC55110CAC51092790480E00E94641532
:10358000C9C5902F812F0EC6F901858181FF3AC6EA
:10359000C9010E94C70F36C68091190181608093CE
:1035A00019015EC6809119018E7F809319010E94D6
:1035B000091056C6809119018F7E013E110531F028
:1035C000053E1105C9F4809119018F7D8093190181
:1035D0008091190180FF53C6D70112968C91083251
:1035E000110528F50E31110508F072C004301105DF
:1035F00080F5811140C643C6C8019056811540E24E
:10360000940720F0905E8115904110F78091190188
:1036100082FF35C68091B80381FD31C62AEF31E0C3
:1036200040E0B60190E080E00E94871728C6093389
:10363000110558F40D32110518F40B321105C9F6B5
:103640009091B60392FDD5CF08C004361105C1F3A1
:10365000D0CF9091B60394FDCCCF882309F4A8C0B5
:103660008091E60190917A03892B8D7FB1F11092C0
:10367000C2031092C1038091B60381FD2EC0F801F0
:1036800043E0F695E7954A95E1F7EE71FF27E55897
:10369000FC4F98012F70332781E090E002C0880F23
:1036A000991F2A95E2F78095909520813181822398
:1036B00093239183808360E0C8010E9472178091F8
:1036C000E6018D7F0E940B0A82E00E94621034CED8
:1036D0009091B60393FD8DCFC0CF88E0F701AAEF9C
:1036E000B1E001900D928A95E1F71092FC011092E1
:1036F000FE011092FD018091C1039091C203081751
:103700001907D1F52091B60325FF36C03091190174
:1037100031FF02C026FF30C02091BF033091C003AB
:103720005601A21AB30AB7010E94D40DA816B90611
:1037300018F580917A0381FF08C08091190180619A
:103740008093190182E00E94260A80917A0385FF06
:1037500008C08091190180628093190180E20E9463
:10376000260A60911901669561708091C10390915C
:10377000C2030E947217E0CD8091E60190917A0316
:10378000982B2091190191FB21F9209319018D7F2C
:103790000E940B0A1093C2030093C103D092C0038E
:1037A000C092BF03809119018460809319018CCF6E
:1037B000970140E0B601C8010E948717BDCD053FC3
:1037C0004CE5140709F463C008F45BC0063F8CE5C0
:1037D000180709F462C0D70112963C91332309F40B
:1037E000D8C5109280040330BDE51B0708F061C006
:1037F0000A3FECE51E0730F4C80182509C4544970F
:1038000008F063C00E94070D9093790380937803BA
:1038100002315CE5150709F49EC108F0EEC00930DD
:103820009CE5190709F475C108F0B8C00530BCE57E
:103830001B0709F462C108F09FC00330FCE51F07B5
:1038400009F453C108F055C18091780381600230BA
:103850003CE5130709F4CEC0809178039091790379
:103860000E94B20D0E94BB1067CD07E225EE45EE27
:1038700068ED7CE51FC506E221EE40EE63EF7CE5D6
:1038800019C507E225EE44EE64EF7CE513C506E2B8
:1038900021EE42EE65EF7CE50DC507E225EE46EE32
:1038A00066EF7CE507C508E221E045EE69ED7CE5C1
:1038B00001C5053AFDE51F0709F4A4CF08F055C07E
:1038C00001364DE5140709F49DCF06318CE5180744
:1038D00009F464C50A355DE5150709F495C108F0DA
:1038E0006EC101159CE5190709F474C10E3D1C4514
:1038F00009F47DC1F70186819781009709F488C199
:103900000E947208182F092FF701D280C580C29437
:103910003FE0C3228091DB018770C1F0AD2CDD2038
:10392000B1F0892F807F803421F080E2810F8830D0
:1039300068F08091790382FF09C082E00E946210E2
:103940008091DB018770AA24A3948111A12C902E71
:1039500092942FE09222FBE0F91508F4E6C1E92DDC
:10396000F0E0EA51FD4C0C941632C8018D5A9D4589
:10397000039708F0AACF46CF809178038062073082
:103980004CE51407B9F180917803806108305CE55B
:10399000150780F18091780380642CC00D308CE590
:1039A000180709F4C0C090F4809178038E7F0B3023
:1039B000ACE51A07F9F0809178038C600C30BCE517
:1039C0001B07C0F0809178038D7F14C00F30ECE5A9
:1039D0001E0709F4B8C008F4AAC000312CE512078C
:1039E00009F4B5C0809178038F7B01313CE5130762
:1039F00009F032CF809378032FCF0F3F4CE51407A7
:103A000009F4B3C0A8F50A3F8CE5180709F479C09A
:103A1000C0F40431ACE51A0709F4B5C008F4A1C03C
:103A20000531ECE51E0709F017CF8091780382FB82
:103A3000992790F921E0922790FB82F990FB83F976
:103A4000D9CF0C3FFCE51F0709F475C008F45DC031
:103A50000D3F3CE5130709F472C080917903836040
:103A60000E3F4CE5140709F0F7CE80937903F4CEAE
:103A700001365DE5150709F491C090F401309DE52C
:103A8000190709F489C008F474C060E00230BDE58C
:103A90001B0709F0E1CE8EE090E00E949E32DCCE62
:103AA0000D3AEDE51E07E9F060F490917803892F57
:103AB0008E7F90FF8160053A2DE5120709F49ACFB9
:103AC000CBCE0E3A3DE5130751F10F3A4DE5140701
:103AD00009F0C2CE90917903892F877F93FF886088
:103AE000C4CF809179038860C0CF809178038260D1
:103AF00081CF8091780384607DCF80917803886046
:103B000079CF809179038160B0CF80917903826011
:103B1000ACCF0E94BB108091780380686BCF8091FE
:103B20007903877FA2CF809178038B7F63CF8091C9
:103B30007803877F5FCF809179038E7F96CF8091C6
:103B400079038D7F92CF809178038F7E53CF8091C0
:103B500078038F7D4FCF0E94BB10809178038F77C1
:103B600049CF80917803837F45CF809179038C7F03
:103B70007CCF80917903982F909591708E7F892BBF
:103B800090FB81F972CF0E94BB1090917803892F2E
:103B900097FB87F980582ECF61E07DCF9091780315
:103BA000892F8F7E94FF806125CF80917C018111C8
:103BB00004C089E20E94540AC2CC85E3FBCF0C35D5
:103BC000BDE51B07B9F010F1073A1D4509F092CE8B
:103BD0000E94FD140E94BB102FEF34E34CE02150F3
:103BE00030404040E1F700C000000E94C40B0E943A
:103BF0003F18EECF8091790382FB882780F991E00E
:103C000089270E947E1076CE81E0FBCF80E0F9CF3D
:103C1000828100811181882369F0C8010E94640CAF
:103C2000D82E682FC8010E94BF0AB8018D2D0E94AE
:103C3000470C66CEC8010E948B0AD82EF6CF202FE3
:103C40002F70B22E802F807F19F0B29490EFB9229E
:103C5000DD20A9F0BB2059F080E2810F883010F000
:103C6000111107C08B2D0E942D0A0E94700F812F09
:103C70005AC08091A904B82AB092A904F6CF812F26
:103C80000E943215BB2009F450C080E2810F8830B9
:103C900010F0111104C08B2D0E94260A03C08B2D39
:103CA0000E941F0A0E94700F40C0302F3F70B32E39
:103CB000802F807F803219F0B29480EFB8221123D8
:103CC00021F1113009F4AEC0DD2009F4B7C0CC20D9
:103CD00009F47FC020E0D7014C9111965C911197B7
:103CE00012966C91129713967C91139714968C915F
:103CF0000E94BD0C8091B80381FDB9CFF701858189
:103D000080FFB5CF8F70858364C08091790382FD79
:103D100040C0DD20C1F1BB2029F08B2D0E942D0A6F
:103D20000E94700F80E00E94E215A92DA850BB0BE5
:103D3000149710F40E94D704812F902F0E94F60A46
:103D40008111C2C110927F0110927E01AA20B1F0B0
:103D50008091DB0180FD12C0D70112961C928595DF
:103D6000859585950E949310C7010E94AA1880919D
:103D7000DB018595859585950E94551060E0C7010A
:103D80000E94E00CE9CA80E00E943215BB2069F273
:103D900082CFDD2011F1C11004C08091E6018B2992
:103DA00019C041E0C41206C08091E6018B290E942F
:103DB0000B0ABBCF8091B703823078F3C812EDCFE6
:103DC0000E94000A90917D018B2D892B891380938D
:103DD0007D018B2D0E942B15A8CFC11003C00E941E
:103DE000000A17C08091B70351E0C51216C0823097
:103DF00008F49BCF80917A038B2109F496CF0E941F
:103E0000000A90917D018B2D8095892389138093E1
:103E10007D018B2D0E94241588CF823000F3C812BB
:103E2000DECF83CF8091BD03DD2021F08C1508F417
:103E30007CCFCFCFC81608F078CFEBCFCC2049F39A
:103E40008091BB039091BC03193321F08091B90399
:103E50009091BA030E94E80B812F0E94321565CF22
:103E6000802F86958695837069F0813009F05DCF4B
:103E7000812F902F9370D11002C090E080E00E94BB
:103E8000AB0453CF812F902F9370D11002C090E0DC
:103E900080E00E94C10449CF812FDD2029F00E94DB
:103EA000AE070E946C0641CF0E949306FACF802F86
:103EB000837091F5D11039CF412F429546954770C7
:103EC000440F440F812F8F70042E01C0880F0A9475
:103ED000EAF7212F207114FF07C02FE030E001C066
:103EE000220F4A95EAF72095302F36953695337094
:103EF000323069F050F44091E701313029F0822BE3
:103F000084230E94B61011CF842B822BFACF282B4A
:103F10008091E7018227F5CF8695DD2011F0802F73
:103F20008170882309F401CF412F4295469547704F
:103F3000440F440F812F8F70042E01C0880F0A9404
:103F4000EAF7212F207114FF07C02FE030E001C0F5
:103F5000220F4A95EAF72095302F36953695337023
:103F6000323069F050F44091A804313029F0822BAE
:103F700084230E944410D9CE842B822BFACF282B85
:103F80008091A8048227F5CFF02FFF70BF2EDD208F
:103F900029F08F2F0E949310812F1CCF812F0E9418
:103FA00024158B2D0E945510C0CE123F89F160F46C
:103FB000103FB9F0113F81F0DD2009F480C0C1103D
:103FC00056CE802F8F7128C0133F49F1143FA1F7BF
:103FD0008091790382FD2FC0802F8F71DD2011F336
:103FE0001BC08091BD03DD2079F0C81608F09DCE7E
:103FF000202F2F7181E090E001C0880F2A95EAF709
:104000009091A8048927B5CF8C1508F48ECEF0CFF7
:10401000802F8F71D110C6CF0E94931086CE80E082
:10402000DD2009F4A6CF81E0902F9F7101C0880F99
:104030009A95EAF79ECF8091B703823040F1DD2058
:10404000D1F09091DB019770943041F40E94330AD3
:10405000802F8F710E945510A12C67CEC816E0F7F3
:10406000202F2F71B22E822F0E94931063E08B2D90
:104070000E949F10F1CFC81630F00E94330A64E00E
:10408000802F8F71F5CF81E00E946210E5CFDD2097
:1040900059F0302F3F71B32E832F0E94931063E0AD
:1040A0008B2D0E949F1041CE81E00E94621041E062
:1040B0004C1508F03ACE82E00E94621036CEC11054
:1040C000BFCE802F8F716ECFDD2019F0C1103ACE98
:1040D0003DCEC11037CE20E0F70140815181628191
:1040E000738184810E94BD0C8091B80383FF2ACE26
:1040F00080917E0190917F01029709F023CE812F5C
:104100000E9431161FCE552029F0DC0118968C91A3
:1041100085FF33CAC80197558F3F910511F008F00C
:1041200071C05801BB24BEE00B9FF00111249F0118
:10413000275D3D4F6901D70112968C91E25DFD4FDD
:10414000908180FB90F99083882309F41DCA0E9416
:1041500085049093F9018093F801F60182818F5FC5
:1041600082838091A90490917A03892B8383809123
:10417000E60184830680F781E02D309731F0D60187
:104180001C966D917C91C60109958EE08A9DF00187
:104190008B9DF00D1124E75DFD4F858181FFF1C9F5
:1041A00090E080E090938104809382042BC0809102
:1041B0007A0190917B010817190781F410927B0115
:1041C00010927A0110927304109274041092750484
:1041D0001092760410927B0410927A0480917C04F1
:1041E00090917D04009709F495CFA8E08A16910478
:1041F00008F0B8C9642D0E943505811103C081E023
:104200000E9464158091B60380FF39C00E94850426
:104210006C01D70112968C91882309F4CBC9809147
:10422000190182FF08C02AEF31E040E0B60190E0BA
:1042300080E00E9487170B31BCE51B0709F4ACC96D
:104240000C31ECE51E0709F4ADC990911901892FD5
:104250008E7F90FF81600A31FCE51F0709F4A5C934
:10426000C8019056811520E2920728F0905E8115D2
:10427000904108F0ADC91092C2031092C103033FF0
:10428000BCE51B0709F4F7CA08F099CA083DFCE52C
:104290001F0709F4EACA093D2CE5120709F403CB0C
:1042A000073D3CE5130709F096CA06E221EE41EE10
:1042B00067ED7CE5C7010E94F4163EC80031FFE5BA
:1042C0001F0709F434C801312FE5120709F040C077
:1042D00082E02EC800313FE5130709F441C80131DF
:1042E0004FE5140709F440C86801E7E5DE1AFFEF5F
:1042F000CF16D10409F060F56FE172E08C2D0E94B9
:10430000C00D892B29F58EE08C9DF0018D9DF00D5F
:104310001124E75DFD4F8281813009F027C880912B
:104320001F0290912002892B99F080912102909197
:104330002202892B69F0809123029091240220911E
:10434000250230912602822B932B892B09F419C860
:10435000D70112965C90552009F428C80F35BDE5A9
:104360001B0709F41FC80036EDE51E0759F00E358E
:10437000FDE51F0709F01AC880910001882311F498
:104380000C94D2191092000180E00E9464150C94E4
:104390009C1906315CE5150709F0ACCA80917A03D7
:1043A000982F9A7A2091B50320FF04C0482F4474B7
:1043B00009F090E021FF04C0482F417109F090E01E
:1043C00022FF04C0482F487809F090E023FF03C083
:1043D000827209F090E0332309F4E7CB81E0911178
:1043E00001C080E080937C0169E2911165E382E77E
:1043F00091E00E949104A3C8A114B10409F069C816
:10440000512CB12CA12C80E00E946415D0927D0427
:10441000C0927C0481E080937904F60185818093C9
:10442000770451100EC0AB2861F0F60180819181B4
:104430009C0124503109213A310508F071C80E94CD
:10444000540AD6011696AD90BC90C5019A95811577
:104450009F4110F4E0EEBE2277247394C5010197CA
:10446000803B9D4508F0712CD6011996ED91FC9189
:104470001A97309731F01B966D917C9181E00995E8
:104480007822772079F0F601868197810E94110BBE
:1044900080937804C501F8E08F16910408F043C8B2
:1044A0000E94E4040E94700F47C8B0E0A0E0EBE572
:1044B000F2E20C942D3280919401807F31F480914E
:1044C0009101C091D801811107C0CDB7DEB7E8E0F6
:1044D0000C9449322196C770809197018C17A9F3EB
:1044E000F0908F01E0909001C0909201D0909301E4
:1044F000A6016E2D8F2D0E945505D0E08111EACFC7
:104500008E0183E0000F111F8A95E1F7F801E8564C
:10451000FE4F81818E11DECF80818F11DBCF8281B2
:104520008111D8CFE380F480EC18FD0860E08FE8BB
:1045300091E00E94E00C6FE871E00E94D40DE81653
:10454000F90640F6809194018F7080618093940108
:10455000F801E356FE4F80818F70806180838FE881
:1045600091E00E94AA180E94810AAFCFA5E1B0E0B5
:10457000ECEBF2E20C9426328C0185E0F801DE01CE
:10458000519601900D928A95E1F7D8015C901196B1
:104590006C9011971296EC9012971396CD90DC9038
:1045A00060E08FE891E00E94E00C8FE8A82E81E0A7
:1045B000B82E8090920190909301A4016091900197
:1045C00080918F010E9455058111A8C1F090910141
:1045D000F601E819F9094F0160E0FF2009F44BC129
:1045E000C5010E94E00CB5010E94D40D70909401A9
:1045F0008816990608F0F2C04091920150919301FB
:10460000B0908F01A0909001872D807F6A2D09F0D6
:104610008CC08B2D0E945505FE2C811127C0D8011E
:1046200011968C9111978A1121C08C918B111EC00B
:10463000209195013091960116968D919C912817A5
:104640003907A1F4E11012C0872D8F70806180932B
:1046500094018FE891E00E94AA1880919401F801DA
:1046600085838F2D6596EFE00C944232A601662D6E
:10467000852D0E945505D82E81E08E25D11080E031
:1046800080FF18C04E2D662D852D0E94610A88235B
:1046900089F08091B80380FF0DC08FE891E00E94FF
:1046A000AA1888E0EFE8F1E0DF011D928A95E9F7AA
:1046B000F12CD7CF81E08E25D11080E0B82FB170DA
:1046C000CB2E80FF29C04E2D662D852D0E94610ABC
:1046D000D82E811121C0598A6A8A89899A890E94B3
:1046E000930C292F22952F70223050F0243078F42B
:1046F0009F7051F0F8019581907F31F4FD2CB1CF7E
:104700009F7011F08823D1F3805E8830B8F3C80120
:104710000E94AA18DC2CF2CFEE2009F4A2CF8091DF
:104720009401816080939401C3CF8B2D0E94550525
:10473000811124C0D80111968C9111978A111EC045
:104740008C918B111BC0209195013091960116968A
:104750008D919C9117972817390781F4E1100EC0AD
:1047600015967C92C8010E94AA1888E0F801AFE86B
:10477000B1E001900D928A95E1F773CFC8010E94D4
:10478000A00C882339F1EE2029F180919401803228
:10479000A0F020918F01309190013A8729871B86E4
:1047A000DD86CC868E878091950190919601988BBD
:1047B0008F87CE0109960E94AA1888E0F801AFE819
:1047C000B1E001900D928A95E1F70E945522FF24F5
:1047D000F39447CFC8010E94AA18F9CF872D807F94
:1047E00009F45BCF90908F018090900140919201ED
:1047F00050919301682D892D0E94550581111CC08F
:10480000F8018181881118C08081891115C020911B
:10481000950130919601868197812817390761F4B7
:10482000E1100AC07582C8010E94AA1888E0D5016B
:104830001D928A95E9F715CFC8010E94A00C882324
:1048400049F2EE2039F280919401803208F4B5CF1C
:1048500020918F01309190013A8329831B82DD8260
:10486000CC828E83809195019091960198878F8359
:10487000CE010196A0CF8FE891E00E94E00C6FE896
:1048800071E00E94D40D8816990680F6FE2CEE2069
:1048900009F4A0CFE0908F01D09090014091920157
:1048A000509193016D2D8E2D0E945505811128C0C8
:1048B000F80181818D1124C080818E1121C0209149
:1048C0009501309196018681978128173907C1F4A7
:1048D0008091B80382FD49CF9091940190FD45CF1E
:1048E000907F09F442CF809194018583903F09F431
:1048F00039CF982F907F905F8F70892B858332CF2F
:10490000C8010E94A00C811158CF80919401816050
:1049100080939401C8010E94AA18A3CEEE2009F446
:1049200059CFC8010E94A00CF82E882309F452CF59
:1049300088E0F801AFE8B1E001900D928A95E1F7C7
:1049400080918F01909190010E94930C0E945522BA
:1049500088CEA0E1B0E0EFEAF4E20C94333229878C
:104960003A874B875C876D877E878F87988BCE01D0
:1049700009960E94B62281112FC088E0FE01399667
:10498000DE01119601900D928A95E1F74C855D85C7
:104990006A8589850E94550581111EC0A0919701E5
:1049A000B0E0CD010196877099272091D801281792
:1049B0001906E1F093E0AA0FBB1F9A95E1F7A856FC
:1049C000BE4F98E0FE01319601900D929A95E1F765
:1049D000809397010E94810A8091D801909197015C
:1049E000891312C06096E2E00C944F320E94BB1013
:1049F000109297011092D80188E0EFE8F1E0DF0112
:104A00001D928A95E9F7E8CFB8E08B9FC001112489
:104A100088569E4F0E94B622882321F38091D801A8
:104A200090E00196877099278093D801D5CFEF92B7
:104A3000FF920F931F93CF93DF938091C603882338
:104A400061F0C091C5038CE0F82E8091C603C817B1
:104A500048F01092C6031092C503CDB7DEB7E6E06A
:104A60000C944B32EE24E394EC0EE092C5030C2F31
:104A700010E0CF9DE0011124C953DC4F4B815C81D4
:104A8000698188810E94550581111DC08E819F8199
:104A9000892B21F488859985019651F428813981E3
:104AA0004A815B816C817D818E819F810E94A924D6
:104AB000F09EF001F19EF00D1124E953FC4F148299
:104AC00013821092A904CE2DC0CF10926A041092C6
:104AD000690410921A0180916804809367040E940F
:104AE0008E050E9417250895B0E0A0E0EAE7F5E200
:104AF0000C942432C091670497E0892E01E010E005
:104B00002CE0322E3EEF932E44244394809168048F
:104B10008C1309C00E9417250E948E05CDB7DEB701
:104B2000E1E10C944032D0E0FE01EE0FFF1FE15AAC
:104B3000FB4F80819181889ED001899EB00D112408
:104B4000A95DBB4F14962C911497211158C0509019
:104B5000C603E7ECF3E030E020E0712C5D012515A1
:104B600008F04BC0E284F384D501CD90DC906FEF68
:104B70007FEF612C462D50E0DA01AA0FBB1FAC0D70
:104B8000BD1D0D90BC91A02D109731F0EA16FB06CB
:104B900009F4BA016394EECF6F3F7607A9F1D8010B
:104BA00002C0AA0FBB1F6A95E2F77A2AB801062C49
:104BB00002C0660F771F0A94E2F7AB01415051091A
:104BC00074161506F9F4329EF001339EF00D11248F
:104BD000E953FC4F889ED001899EB00D1124A95D38
:104BE000BB4F12962D913C91139737832683908269
:104BF00091829187808715964C920E94600521963C
:104C0000C37084CF148213822F5F3F4F3C96A7CF8F
:104C1000A9E1B0E0EEE0F6E20C942332942F498B48
:104C2000252F5A8B6B8B7C8B8D8B4C895D89622FEA
:104C3000892F0E945505811109C080917E019091B4
:104C40007F01019690937F0180937E018B89811172
:104C50001092A9041D861E861F86188A85E0FE0113
:104C60007196DE01199601900D928A95E1F7809177
:104C7000790382FF1EC080919D0390919E03892B32
:104C8000C1F00E9485042091D9013091DA01821B84
:104C9000930B20919D0330919E038217930720F080
:104CA0008091DB0182FFE2C10E943A0A81110E94D9
:104CB000000A4C855D856A8589850E9455058111AC
:104CC00011C061E0CE0109960E94E00C6C018B8559
:104CD00027EFC2162CE5D20681F4882321F181E06A
:104CE00080931A0129853A854B855C856D857E8583
:104CF0008F8598890E94A924C6C038EFC3163CE569
:104D0000D30629F4882379F00E946525EBCF49EF7B
:104D1000C4164CE5D40639F4882329F080911A0191
:104D20008111F2CFDCCF07E214E0512CB12CA12C81
:104D300022242394312C2EEF422EF8014081518100
:104D400088248A94982C20E0822F90E0FC01EE0FBA
:104D5000FF1FE40FF51F608171816115710531F04E
:104D6000C616D70609F44C012F5FEECFF12CFFEFEA
:104D70008F169F0609F449C0F8014481F0901A018A
:104D80008F2D411180E0F82FF170FF2EF801E580A2
:104D900086819B85992309F4F8C0FF2009F4F5C0AA
:104DA0006090B1037090B203E11013C0A101082C10
:104DB00001C0440F0A94EAF7842B86838091C303D1
:104DC0009091C4038615970520F47092C4036092F5
:104DD000C303C10102C0880F991F2A95E2F701970A
:104DE000F80126812817190681F4809169049091B1
:104DF0006A04009709F44BC00E946A046816790699
:104E000008F045C021E0F80124835F28FFEFAF1AC6
:104E1000BF0A095F1F4F28E0A216B10409F08DCF29
:104E20008B85882309F40DC1552009F40AC10E941D
:104E3000850490936A04809369048091C603883046
:104E400010F591E0980F9093C60398E0FE01399613
:104E5000DE01119601900D929A95E1F73CE0839F57
:104E6000C001112489539C4F28E0FE013196DC01DA
:104E700001900D922A95E1F72FEF3FEFFC0131876A
:104E80002087D386C2866996E2E10C943F328091F6
:104E9000670450916804982FF0E0E0E0851314C097
:104EA00090936704E017F10709F4AFCF90E0FC019D
:104EB000EE0FFF1FE15AFB4FB182A0820196837073
:104EC000992780936804A1CF682E712CF301EE0F0F
:104ED000FF1FE15AFB4F2081318147E0429FD00103
:104EE000439FB00D1124A95DBB4F6D917C9111972B
:104EF000798F688F40E020E030E0E32FF0E0EE0FA4
:104F0000FF1F688D798DE60FF71F808091808114D7
:104F10009104E1F0F8010190F081E02DFF8BEE8B20
:104F200020E005C08616970609F44F2D2F5FE22F6B
:104F3000F0E0EE0FFF1F6E897F89E60FF71F60819B
:104F400071816115710571F73F5FD7CF4423D1F0AF
:104F5000F801231708F0FD0121E024830E171F0735
:104F600021F490936704F42E50CF981305C0AE1728
:104F7000BF0711F49F5F937093012F5F3F4F822F04
:104F800083708CCFF0E0E0E0F7CF90E0E11020C03C
:104F9000B10102C0660F771F2A95E2F79B012150ED
:104FA00031098217930731F4442309F448C0C5013D
:104FB0000E946005C101082C01C0880F0A94EAF71D
:104FC000982F9095F801868189238683FE2C1DCF2A
:104FD0009C01082C02C0359527950A94E2F7A90197
:104FE00041705527BC016150710986239723892B95
:104FF00011F5452B01F1F80182819381892BC1F0D4
:105000001B821C821D821E8249824A820E94850464
:105010008160582F9D838C83F801828193818F83D7
:10502000988729813A814B816D817E810E94A924D4
:10503000F8011582BFCFF22FF170EF2EBBCFEF2C0E
:10504000B9CF9091670480916804981731F00E945D
:105050007425552009F446CE16CF0E9417251092CC
:105060006A04109269040E948E05F3CF82E00E94C8
:1050700062101ACEA5E0B0E0E0E4F8E20C9433321E
:105080009093750380937403811520E2920730F4A6
:105090000E94CA152596E2E00C944F3280EF898376
:1050A0008A831B820E9485048160782F9D838C8374
:1050B00049815A816B818D810E940826EBCF0F9325
:1050C0001F93CF93DF938C01EB016FE172E08C2F84
:1050D0000E94C00D892BA1F48091B9039091BA036D
:1050E0000E94E80BDD27C95EDD4F8881F80112823E
:1050F00018828330F1F048F4813059F0823081F029
:10510000DF91CF911F910F9108958430B9F08530D0
:10511000B9F780911F0290912002009789F306C091
:105120008091210290912202009799F30E943A28DF
:10513000E7CF8091230290912402F6CF809125023F
:1051400090912602009791F720911F023091200242
:10515000809121029091220221153105F1F20097F0
:1051600029F7C901E3CFA5E0B0E0E9EBF8E20C9440
:1051700033329093750380937403811520E2920774
:1051800030F40E945A172596E2E00C944F3280EFDB
:1051900089838A8381E08B830E9485048160782FD4
:1051A0009D838C8349815A816B818D810E94082661
:1051B000EACFCF93DF93EC010E94B3288091B9032B
:1051C0009091BA030E94E80BCE010E943A28DF9129
:1051D000CF9108950F931F93CF93DF938C01862F68
:1051E0006FE172E00E94C00D892BB1F4C0911F02E3
:1051F000D0912002209781F0F8018281833051F410
:10520000CE010E94D928CE010E94D928CE010E9449
:10521000D92802C08430D0F7DF91CF911F910F9130
:1052200008950F931F93CF93DF938C01EB016FE1F0
:1052300072E08C2F0E94C00D892B09F05CC0FE012A
:10524000FF27D80112968C911297E95EFD4F8130AD
:10525000B9F415969C9192FF02C080830AC090FF1A
:10526000FCCF82E0808380912102909122020097FE
:10527000B9F480911F02909120020097E1F110C0D3
:105280008230B9F515968C9182FD28C080FD0BC047
:1052900083E080838091230290912402009701F1A2
:1052A0000E94B32828C084E08083809125029091D9
:1052B00026020097A9F780911F0290912002009783
:1052C000F9F00E94D9288091210290912202009742
:1052D00039F780911F0290912002E2CF85E0808310
:1052E00080911F0290912002009729F00E94D928F6
:1052F000F0CF86E08083DF91CF911F910F910895C9
:105300008091210290912202B8CF1F920F920FB686
:105310000F9211242F933F934F935F936F937F933B
:105320008F939F93AF93BF93CF93DF93EF93FF93AD
:10533000D091E900DF708091EC00C82FC17080FD32
:10534000C0E81092E9008091F000877F8093F00020
:1053500078940E94C7101092E9008091F000886054
:105360008093F000CD2BCF70C093E900FF91EF91B7
:10537000DF91CF91BF91AF919F918F917F916F916D
:105380005F914F913F912F910F900FBE0F901F9003
:1053900018951F920F920FB60F9211242F933F93DF
:1053A0004F935F936F937F938F939F93AF93BF932D
:1053B000EF93FF938091E10082FF09C08091E200AA
:1053C00082FF05C08091E1008B7F8093E100809196
:1053D000DA0080FF24C08091D80080FF20C0809137
:1053E000DA008E7F8093DA008091D90080FF9DC023
:1053F00080E189BD82E189BD09B400FEFDCF81E075
:1054000080939E0480919104811109C00E94E20260
:105410000E94AD038091E20084608093E20080915D
:10542000E10080FF17C08091E20080FF13C08091EF
:10543000E2008E7F8093E2008091E20080618093A1
:10544000E2008091D80080628093D80019BC85E08A
:1054500080939E048091E10084FF2BC08091E20044
:1054600084FF27C080E189BD82E189BD89B5982F7D
:10547000917080FFFBCF8091D8008F7D8093D80002
:105480008091E1008F7E8093E1008091E2008F7E29
:105490008093E2008091E20081608093E20080913D
:1054A0009F04882309F447C084E080939E04809180
:1054B0009E048091E10083FF27C08091E20083FF7A
:1054C00023C08091E100877F8093E10082E0809398
:1054D0009E0410929F048091E1008E7F8093E100F2
:1054E0008091E2008E7F8093E2008091E2008061F3
:1054F0008093E20042E060E080E00E947B038091C4
:10550000F00088608093F000FF91EF91BF91AF9120
:105510009F918F917F916F915F914F913F912F91CB
:105520000F900FBE0F901F90189519BC10929E04FB
:105530001092910474CF8091E30087FD93E09093E3
:105540009E04B5CF78941F921FB61F9211248F939B
:105550009F93AF93BF9380918A0490918B04A09105
:105560008C04B0918D040196A11DB11D80938A0415
:1055700090938B04A0938C04B0938D04BF91AF9152
:105580009F918F911F901FBE1F9018951F921FB65D
:105590001F9211248F939F93AF93BF93809189049F
:1055A000811113C080918A0490918B04A0918C0486
:1055B000B0918D044196A11DB11D80938A049093F2
:1055C0008B04A0938C04B0938D04BF91AF919F91F5
:1055D0008F911F901FBE1F901895CDB7DEB7EC9727
:1055E0000FB6F894DEBF0FBECDBF85B7806885BF0C
:1055F00085B7806885BF84B7877F84BF0FB6F8946E
:10560000A89580916000886180936000109260008E
:105610000FBE80E890E00FB6F894809361009093FD
:1056200061000FBE86E198E0909371018093700154
:105630000E9447060E947E0E0E94F20D0E94F20B0D
:105640000E94E2020E94AD038091E2008460809398
:10565000E200789480919E048823A1F01091E900E3
:105660001F709091EC00892F817090FD80E8182BBD
:105670001092E9008091E80083FD0E94C7101F701E
:105680001093E90082E084BD93E095BD9AEF97BD49
:1056900080936E000E94EE0C811102C00E9474146F
:1056A00005E511E09AE5E92E91E0F92ED8018D91FA
:1056B0008D018F3F11F00E941808E016F106B1F736
:1056C0000AE511E081E6E82E81E0F82EF8018191EB
:1056D0008F018F3F11F00E941808E016F106B1F714
:1056E00085E0E5E0F2E0DF01282F1D922A95E9F739
:1056F000EBEEF1E0DF011D928A95E9F790E080E0A2
:105700000E949832883E9E4F21F40E94EE0C811137
:1057100002C00E943F1882E090E00E949032809385
:10572000F2010E94070D90937903809378030E9401
:10573000C20EEFEFF6E721E0E150F0402040E1F744
:1057400000C000000E94C20E8091050280FF08C0C8
:105750006FEF7FEF90E080E00E94BC320E94C40BAC
:1057600083E090E00E9490320E94B61081E091E0C8
:105770009093860480938504B8E16B2E712C85E0AC
:1057800092E015E0512E580E5E013BE2A30EB11CD3
:1057900080919E04A0E4FA2E00E112E1853009F424
:1057A00079C00E94C20EE3EFEE2EE1E0FE2EF5E09E
:1057B000CF2EF2E0DF2ED601F70191918D9141E0DD
:1057C000E83FF40709F470C09817B9F310E0D60168
:1057D0000D916D01F70141907F01401619F14026AE
:1057E000912C88248394842D8821A1F098AE19AF40
:1057F00091E0802F882109F490E09AAF0E948504FF
:105800008160782F9CAF8BAF48AD59AD6AAD8CAD40
:105810000E9408269394880CF7E09F12E4CFF701CA
:10582000319700831F5F153091F60E9479045CC0A8
:1058300080919E04843009F1109289040FB6F89487
:10584000A895609260000FBEF092600083B7817FE0
:10585000846083BF83B7816083BF7894889583B762
:105860008E7F83BF0FB6F894A89580916000886101
:1058700080936000109260000FBE80919D04882389
:1058800049F00E94C20EE5E0F2E08191811159C514
:105890005E12FBCF80919E04853009F4C9CF0E942F
:1058A000BB100E94D7047DCF981390CF0E9485042F
:1058B0008C018091F0019091F10108171907A1F076
:1058C0008FEF8BAB8CAB1DAA0E9485048160782F73
:1058D0009FAB8EAB4BA95CA96DA98FA90E9408262E
:1058E0001093F1010093F00180917A0490917B0470
:1058F000892B09F43EC040916F045091700460916F
:105900007104709172042FB7F89480918A04909179
:105910008B04A0918C04B0918D042FBF841B950B38
:10592000A60BB70B40916B0450916C0460916D0411
:1059300070916E0484179507A607B707D0F0809181
:105940007A0490917B040E945A1710927B04109263
:105950007A0410926F0410927004109271041092E5
:10596000720410926B0410926C0410926D041092E9
:105970006E0400918104109182040115110519F142
:105980008091F8019091F9010E946A047C0188E0FD
:10599000D5011D928A95E9F7B501C8010E94D40D81
:1059A0008E159F0580F480918104BEE08B9FC0011D
:1059B0001124FC01E25DFD4F208122FD04C0875DC2
:1059C0009D4F0E94E10F80911A01882301F180917F
:1059D000690490916A040097D1F00E946A042091B2
:1059E000C3033091C4032817390788F490916704E2
:1059F00080916804981709F4D3C00E94742510920E
:105A0000C4031092C30310926A0410926904809137
:105A1000B60380FF1EC08091190182FF1AC00E9448
:105A200085042091BF033091C003AC01421B530B8E
:105A300020911701309118014217530750F02AEFB7
:105A400031E041E0BC018091C1039091C2030E940A
:105A5000871786E0E1E1F2E08E010F5F1F4FD8016A
:105A600001900D928A95E1F71092130210921402A0
:105A700010921502109216028B819C81892B91F055
:105A800080910F02909110020E946A04AC019091E3
:105A90000B02992309F48DC0809115018417150616
:105AA00008F495C08D819E81892B91F080910D0223
:105AB00090910E020E946A04AC0190910A0299230F
:105AC00009F4C6C0809111018417150608F4CEC0F0
:105AD00046E050E0B80181E192E00E946332892BF8
